{
  "transactions": [
    {
      "hash": "0xb300505baf92bc174f1a41bf0113a68f0540a5457d32f11d47969364a102a936",
      "transactionType": "CREATE",
      "contractName": "MyERC20Mock",
      "contractAddress": "0x5FbDB2315678afecb367f032d93F642f64180aa3",
      "function": null,
      "arguments": [
        "Base",
        "BASE",
        "0xf39Fd6e51aad88F6F4ce6aB8827279cffFb92266"
      ],
      "transaction": {
        "from": "0xf39Fd6e51aad88F6F4ce6aB8827279cffFb92266",
        "gas": "0xc59da",
        "value": "0x0",
        "input": "0x608060405234801561001057600080fd5b50604051610c3f380380610c3f83398101604081905261002f91610199565b808383600361003e83826102ad565b50600461004b82826102ad565b5050506001600160a01b03811661007c57604051631e4fbdf760e01b81526000600482015260240160405180910390fd5b6100858161008e565b5050505061036b565b600580546001600160a01b038381166001600160a01b0319831681179093556040519116919082907f8be0079c531659141344cd1fd0a4f28419497f9722a3daafe3b4186f6b6457e090600090a35050565b634e487b7160e01b600052604160045260246000fd5b600082601f83011261010757600080fd5b81516001600160401b03811115610120576101206100e0565b604051601f8201601f19908116603f011681016001600160401b038111828210171561014e5761014e6100e0565b60405281815283820160200185101561016657600080fd5b60005b8281101561018557602081860181015183830182015201610169565b506000918101602001919091529392505050565b6000806000606084860312156101ae57600080fd5b83516001600160401b038111156101c457600080fd5b6101d0868287016100f6565b602086015190945090506001600160401b038111156101ee57600080fd5b6101fa868287016100f6565b604086015190935090506001600160a01b038116811461021957600080fd5b809150509250925092565b600181811c9082168061023857607f821691505b60208210810361025857634e487b7160e01b600052602260045260246000fd5b50919050565b601f8211156102a857806000526020600020601f840160051c810160208510156102855750805b601f840160051c820191505b818110156102a55760008155600101610291565b50505b505050565b81516001600160401b038111156102c6576102c66100e0565b6102da816102d48454610224565b8461025e565b6020601f82116001811461030e57600083156102f65750848201515b600019600385901b1c1916600184901b1784556102a5565b600084815260208120601f198516915b8281101561033e578785015182556020948501946001909201910161031e565b508482101561035c5786840151600019600387901b60f8161c191681555b50505050600190811b01905550565b6108c58061037a6000396000f3fe608060405234801561001057600080fd5b50600436106100cf5760003560e01c806370a082311161008c57806395d89b411161006657806395d89b41146101aa578063a9059cbb146101b2578063dd62ed3e146101c5578063f2fde38b146101fe57600080fd5b806370a082311461015e578063715018a6146101875780638da5cb5b1461018f57600080fd5b806306fdde03146100d4578063095ea7b3146100f257806318160ddd1461011557806323b872dd14610127578063313ce5671461013a57806340c10f1914610149575b600080fd5b6100dc610211565b6040516100e9919061070e565b60405180910390f35b610105610100366004610778565b6102a3565b60405190151581526020016100e9565b6002545b6040519081526020016100e9565b6101056101353660046107a2565b6102bd565b604051601281526020016100e9565b61015c610157366004610778565b6102e1565b005b61011961016c3660046107df565b6001600160a01b031660009081526020819052604090205490565b61015c6102f7565b6005546040516001600160a01b0390911681526020016100e9565b6100dc61030b565b6101056101c0366004610778565b61031a565b6101196101d3366004610801565b6001600160a01b03918216600090815260016020908152604080832093909416825291909152205490565b61015c61020c3660046107df565b610328565b60606003805461022090610834565b80601f016020809104026020016040519081016040528092919081815260200182805461024c90610834565b80156102995780601f1061026e57610100808354040283529160200191610299565b820191906000526020600020905b81548152906001019060200180831161027c57829003601f168201915b5050505050905090565b6000336102b181858561036b565b60019150505b92915050565b6000336102cb85828561037d565b6102d68585856103fb565b506001949350505050565b6102e961045a565b6102f38282610487565b5050565b6102ff61045a565b61030960006104bd565b565b60606004805461022090610834565b6000336102b18185856103fb565b61033061045a565b6001600160a01b03811661035f57604051631e4fbdf760e01b8152600060048201526024015b60405180910390fd5b610368816104bd565b50565b610378838383600161050f565b505050565b6001600160a01b0383811660009081526001602090815260408083209386168352929052205460001981146103f557818110156103e657604051637dc7a0d960e11b81526001600160a01b03841660048201526024810182905260448101839052606401610356565b6103f58484848403600061050f565b50505050565b6001600160a01b03831661042557604051634b637e8f60e11b815260006004820152602401610356565b6001600160a01b03821661044f5760405163ec442f0560e01b815260006004820152602401610356565b6103788383836105e4565b6005546001600160a01b031633146103095760405163118cdaa760e01b8152336004820152602401610356565b6001600160a01b0382166104b15760405163ec442f0560e01b815260006004820152602401610356565b6102f3600083836105e4565b600580546001600160a01b038381166001600160a01b0319831681179093556040519116919082907f8be0079c531659141344cd1fd0a4f28419497f9722a3daafe3b4186f6b6457e090600090a35050565b6001600160a01b0384166105395760405163e602df0560e01b815260006004820152602401610356565b6001600160a01b03831661056357604051634a1406b160e11b815260006004820152602401610356565b6001600160a01b03808516600090815260016020908152604080832093871683529290522082905580156103f557826001600160a01b0316846001600160a01b03167f8c5be1e5ebec7d5bd14f71427d1e84f3dd0314c0f7b2291e5b200ac8c7c3b925846040516105d691815260200190565b60405180910390a350505050565b6001600160a01b03831661060f578060026000828254610604919061086e565b909155506106819050565b6001600160a01b038316600090815260208190526040902054818110156106625760405163391434e360e21b81526001600160a01b03851660048201526024810182905260448101839052606401610356565b6001600160a01b03841660009081526020819052604090209082900390555b6001600160a01b03821661069d576002805482900390556106bc565b6001600160a01b03821660009081526020819052604090208054820190555b816001600160a01b0316836001600160a01b03167fddf252ad1be2c89b69c2b068fc378daa952ba7f163c4a11628f55a4df523b3ef8360405161070191815260200190565b60405180910390a3505050565b602081526000825180602084015260005b8181101561073c576020818601810151604086840101520161071f565b506000604082850101526040601f19601f83011684010191505092915050565b80356001600160a01b038116811461077357600080fd5b919050565b6000806040838503121561078b57600080fd5b6107948361075c565b946020939093013593505050565b6000806000606084860312156107b757600080fd5b6107c08461075c565b92506107ce6020850161075c565b929592945050506040919091013590565b6000602082840312156107f157600080fd5b6107fa8261075c565b9392505050565b6000806040838503121561081457600080fd5b61081d8361075c565b915061082b6020840161075c565b90509250929050565b600181811c9082168061084857607f821691505b60208210810361086857634e487b7160e01b600052602260045260246000fd5b50919050565b808201808211156102b757634e487b7160e01b600052601160045260246000fdfea2646970667358221220e96b9e23415b987561d332521b087a3f5c2eb6e62ecd0f97c614690c34b6a86b64736f6c634300081c0033000000000000000000000000000000000000000000000000000000000000006000000000000000000000000000000000000000000000000000000000000000a0000000000000000000000000f39fd6e51aad88f6f4ce6ab8827279cfffb922660000000000000000000000000000000000000000000000000000000000000004426173650000000000000000000000000000000000000000000000000000000000000000000000000000000000000000000000000000000000000000000000044241534500000000000000000000000000000000000000000000000000000000",
        "nonce": "0x0",
        "chainId": "0x7a69"
      },
      "additionalContracts": [],
      "isFixedGasLimit": false
    },
    {
      "hash": "0xf84e28cf3417c5171ff86e886531960504074c625fe4ea5e099c254d433730f2",
      "transactionType": "CREATE",
      "contractName": "MyERC20Mock",
      "contractAddress": "0xe7f1725E7734CE288F8367e1Bb143E90bb3F0512",
      "function": null,
      "arguments": [
        "Quote",
        "QUOTE",
        "0xf39Fd6e51aad88F6F4ce6aB8827279cffFb92266"
      ],
      "transaction": {
        "from": "0xf39Fd6e51aad88F6F4ce6aB8827279cffFb92266",
        "gas": "0xc59f9",
        "value": "0x0",
        "input": "0x608060405234801561001057600080fd5b50604051610c3f380380610c3f83398101604081905261002f91610199565b808383600361003e83826102ad565b50600461004b82826102ad565b5050506001600160a01b03811661007c57604051631e4fbdf760e01b81526000600482015260240160405180910390fd5b6100858161008e565b5050505061036b565b600580546001600160a01b038381166001600160a01b0319831681179093556040519116919082907f8be0079c531659141344cd1fd0a4f28419497f9722a3daafe3b4186f6b6457e090600090a35050565b634e487b7160e01b600052604160045260246000fd5b600082601f83011261010757600080fd5b81516001600160401b03811115610120576101206100e0565b604051601f8201601f19908116603f011681016001600160401b038111828210171561014e5761014e6100e0565b60405281815283820160200185101561016657600080fd5b60005b8281101561018557602081860181015183830182015201610169565b506000918101602001919091529392505050565b6000806000606084860312156101ae57600080fd5b83516001600160401b038111156101c457600080fd5b6101d0868287016100f6565b602086015190945090506001600160401b038111156101ee57600080fd5b6101fa868287016100f6565b604086015190935090506001600160a01b038116811461021957600080fd5b809150509250925092565b600181811c9082168061023857607f821691505b60208210810361025857634e487b7160e01b600052602260045260246000fd5b50919050565b601f8211156102a857806000526020600020601f840160051c810160208510156102855750805b601f840160051c820191505b818110156102a55760008155600101610291565b50505b505050565b81516001600160401b038111156102c6576102c66100e0565b6102da816102d48454610224565b8461025e565b6020601f82116001811461030e57600083156102f65750848201515b600019600385901b1c1916600184901b1784556102a5565b600084815260208120601f198516915b8281101561033e578785015182556020948501946001909201910161031e565b508482101561035c5786840151600019600387901b60f8161c191681555b50505050600190811b01905550565b6108c58061037a6000396000f3fe608060405234801561001057600080fd5b50600436106100cf5760003560e01c806370a082311161008c57806395d89b411161006657806395d89b41146101aa578063a9059cbb146101b2578063dd62ed3e146101c5578063f2fde38b146101fe57600080fd5b806370a082311461015e578063715018a6146101875780638da5cb5b1461018f57600080fd5b806306fdde03146100d4578063095ea7b3146100f257806318160ddd1461011557806323b872dd14610127578063313ce5671461013a57806340c10f1914610149575b600080fd5b6100dc610211565b6040516100e9919061070e565b60405180910390f35b610105610100366004610778565b6102a3565b60405190151581526020016100e9565b6002545b6040519081526020016100e9565b6101056101353660046107a2565b6102bd565b604051601281526020016100e9565b61015c610157366004610778565b6102e1565b005b61011961016c3660046107df565b6001600160a01b031660009081526020819052604090205490565b61015c6102f7565b6005546040516001600160a01b0390911681526020016100e9565b6100dc61030b565b6101056101c0366004610778565b61031a565b6101196101d3366004610801565b6001600160a01b03918216600090815260016020908152604080832093909416825291909152205490565b61015c61020c3660046107df565b610328565b60606003805461022090610834565b80601f016020809104026020016040519081016040528092919081815260200182805461024c90610834565b80156102995780601f1061026e57610100808354040283529160200191610299565b820191906000526020600020905b81548152906001019060200180831161027c57829003601f168201915b5050505050905090565b6000336102b181858561036b565b60019150505b92915050565b6000336102cb85828561037d565b6102d68585856103fb565b506001949350505050565b6102e961045a565b6102f38282610487565b5050565b6102ff61045a565b61030960006104bd565b565b60606004805461022090610834565b6000336102b18185856103fb565b61033061045a565b6001600160a01b03811661035f57604051631e4fbdf760e01b8152600060048201526024015b60405180910390fd5b610368816104bd565b50565b610378838383600161050f565b505050565b6001600160a01b0383811660009081526001602090815260408083209386168352929052205460001981146103f557818110156103e657604051637dc7a0d960e11b81526001600160a01b03841660048201526024810182905260448101839052606401610356565b6103f58484848403600061050f565b50505050565b6001600160a01b03831661042557604051634b637e8f60e11b815260006004820152602401610356565b6001600160a01b03821661044f5760405163ec442f0560e01b815260006004820152602401610356565b6103788383836105e4565b6005546001600160a01b031633146103095760405163118cdaa760e01b8152336004820152602401610356565b6001600160a01b0382166104b15760405163ec442f0560e01b815260006004820152602401610356565b6102f3600083836105e4565b600580546001600160a01b038381166001600160a01b0319831681179093556040519116919082907f8be0079c531659141344cd1fd0a4f28419497f9722a3daafe3b4186f6b6457e090600090a35050565b6001600160a01b0384166105395760405163e602df0560e01b815260006004820152602401610356565b6001600160a01b03831661056357604051634a1406b160e11b815260006004820152602401610356565b6001600160a01b03808516600090815260016020908152604080832093871683529290522082905580156103f557826001600160a01b0316846001600160a01b03167f8c5be1e5ebec7d5bd14f71427d1e84f3dd0314c0f7b2291e5b200ac8c7c3b925846040516105d691815260200190565b60405180910390a350505050565b6001600160a01b03831661060f578060026000828254610604919061086e565b909155506106819050565b6001600160a01b038316600090815260208190526040902054818110156106625760405163391434e360e21b81526001600160a01b03851660048201526024810182905260448101839052606401610356565b6001600160a01b03841660009081526020819052604090209082900390555b6001600160a01b03821661069d576002805482900390556106bc565b6001600160a01b03821660009081526020819052604090208054820190555b816001600160a01b0316836001600160a01b03167fddf252ad1be2c89b69c2b068fc378daa952ba7f163c4a11628f55a4df523b3ef8360405161070191815260200190565b60405180910390a3505050565b602081526000825180602084015260005b8181101561073c576020818601810151604086840101520161071f565b506000604082850101526040601f19601f83011684010191505092915050565b80356001600160a01b038116811461077357600080fd5b919050565b6000806040838503121561078b57600080fd5b6107948361075c565b946020939093013593505050565b6000806000606084860312156107b757600080fd5b6107c08461075c565b92506107ce6020850161075c565b929592945050506040919091013590565b6000602082840312156107f157600080fd5b6107fa8261075c565b9392505050565b6000806040838503121561081457600080fd5b61081d8361075c565b915061082b6020840161075c565b90509250929050565b600181811c9082168061084857607f821691505b60208210810361086857634e487b7160e01b600052602260045260246000fd5b50919050565b808201808211156102b757634e487b7160e01b600052601160045260246000fdfea2646970667358221220e96b9e23415b987561d332521b087a3f5c2eb6e62ecd0f97c614690c34b6a86b64736f6c634300081c0033000000000000000000000000000000000000000000000000000000000000006000000000000000000000000000000000000000000000000000000000000000a0000000000000000000000000f39fd6e51aad88f6f4ce6ab8827279cfffb92266000000000000000000000000000000000000000000000000000000000000000551756f7465000000000000000000000000000000000000000000000000000000000000000000000000000000000000000000000000000000000000000000000551554f5445000000000000000000000000000000000000000000000000000000",
        "nonce": "0x1",
        "chainId": "0x7a69"
      },
      "additionalContracts": [],
      "isFixedGasLimit": false
    },
    {
      "hash": "0x699a015e0491ced0a36dcd311b7e63669725088d83edc47dd3acd434ac68233a",
      "transactionType": "CALL",
      "contractName": "MyERC20Mock",
      "contractAddress": "0x5FbDB2315678afecb367f032d93F642f64180aa3",
      "function": "mint(address,uint256)",
      "arguments": [
        "0xf39Fd6e51aad88F6F4ce6aB8827279cffFb92266",
        "1000000000000000000000000"
      ],
      "transaction": {
        "from": "0xf39Fd6e51aad88F6F4ce6aB8827279cffFb92266",
        "to": "0x5FbDB2315678afecb367f032d93F642f64180aa3",
        "gas": "0x17d81",
        "value": "0x0",
        "input": "0x40c10f19000000000000000000000000f39fd6e51aad88f6f4ce6ab8827279cfffb9226600000000000000000000000000000000000000000000d3c21bcecceda1000000",
        "nonce": "0x2",
        "chainId": "0x7a69"
      },
      "additionalContracts": [],
      "isFixedGasLimit": false
    },
    {
      "hash": "0xbb3d432d06deb0846e774d57038edccc2e22f1925568bbd071905bd05557f235",
      "transactionType": "CALL",
      "contractName": "MyERC20Mock",
      "contractAddress": "0xe7f1725E7734CE288F8367e1Bb143E90bb3F0512",
      "function": "mint(address,uint256)",
      "arguments": [
        "0xf39Fd6e51aad88F6F4ce6aB8827279cffFb92266",
        "1000000000000000000000000"
      ],
      "transaction": {
        "from": "0xf39Fd6e51aad88F6F4ce6aB8827279cffFb92266",
        "to": "0xe7f1725E7734CE288F8367e1Bb143E90bb3F0512",
        "gas": "0x17d81",
        "value": "0x0",
        "input": "0x40c10f19000000000000000000000000f39fd6e51aad88f6f4ce6ab8827279cfffb9226600000000000000000000000000000000000000000000d3c21bcecceda1000000",
        "nonce": "0x3",
        "chainId": "0x7a69"
      },
      "additionalContracts": [],
      "isFixedGasLimit": false
    },
    {
      "hash": "0x436a3b3955475bdca43ef2e6aad9c2c20dfb245b1cd52a77f86a16d8a740a33b",
      "transactionType": "CREATE",
      "contractName": "NoSandwichSwapPair",
      "contractAddress": "0xDc64a140Aa3E981100a9becA4E685f962f0cF6C9",
      "function": null,
      "arguments": [
        "0x5FbDB2315678afecb367f032d93F642f64180aa3",
        "0xe7f1725E7734CE288F8367e1Bb143E90bb3F0512",
        "10",
        "10"
      ],
      "transaction": {
        "from": "0xf39Fd6e51aad88F6F4ce6aB8827279cffFb92266",
        "gas": "0x344087",
        "value": "0x0",
        "input": "0x61014060405234801561001157600080fd5b5060405161303838038061303883398101604081905261003091610117565b600160009081556001600160a01b03808616608081905290851660a081905260c09190915260e052610100839052610120829052600981905560035560405130906201518090683635c9adc5dea000009061008a906100ee565b6001600160a01b03909316835260208301919091526040820152606001604051809103906000f0801580156100c3573d6000803e3d6000fd5b50600a80546001600160a01b0319166001600160a01b03929092169190911790555061015a92505050565b610c85806123b383390190565b80516001600160a01b038116811461011257600080fd5b919050565b6000806000806080858703121561012d57600080fd5b610136856100fb565b9350610144602086016100fb565b6040860151606090960151949790965092505050565b60805160a05160c05160e0516101005161012051612170610243600039600081816101d40152818161109e015281816110c8015261110a01526000818161036501528181610e190152610f7c0152600081816102fb015281816106910152818161087d01528181610cbc0152818161133e015281816117e40152818161187501526119d501526000818161038b015281816105dd015281816107c701528181610b820152818161150e0152818161167f01528181611710015261194a0152600081816102230152610abb01526000818161026c01528181610a7e0152610b3101526121706000f3fe608060405234801561001057600080fd5b50600436106101735760003560e01c80639cd441da116100de578063d150ef2a11610097578063e367bf7711610071578063e367bf7714610363578063ea40e35d14610389578063ecea3035146103af578063fed839e0146103c257600080fd5b8063d150ef2a14610328578063db207aa51461033b578063dd2964801461034357600080fd5b80639cd441da146102c0578063a2795a07146102d3578063a9009f06146102e8578063b3e6039e146102f0578063c89ff126146102f9578063ca48bbd21461031f57600080fd5b80634ca43468116101305780634ca434681461024757806378071d2b1461025a578063798b03ad1461026257806386415be41461026a57806398d5fdca146102905780639c8f9f231461029857600080fd5b8063134b9dd4146101785780631a686502146101a85780631cf63244146101bf57806331caee0a146101d25780633ca65a02146101f8578063439bec7014610221575b600080fd5b600a5461018b906001600160a01b031681565b6040516001600160a01b0390911681526020015b60405180910390f35b6101b160035481565b60405190815260200161019f565b61018b6101cd366004611d6a565b6103eb565b7f00000000000000000000000000000000000000000000000000000000000000006101b1565b6101b1610206366004611d9a565b6001600160a01b031660009081526006602052604090205490565b7f000000000000000000000000000000000000000000000000000000000000000061018b565b61018b610255366004611d6a565b610468565b6009546101b1565b6005546101b1565b7f000000000000000000000000000000000000000000000000000000000000000061018b565b6101b1610492565b6102ab6102a6366004611d6a565b6104bc565b6040805192835260208301919091520161019f565b6101b16102ce366004611dbc565b61077a565b6102e66102e1366004611dde565b610a65565b005b6007546101b1565b6101b160025481565b7f000000000000000000000000000000000000000000000000000000000000000061018b565b6101b160015481565b61018b610336366004611d6a565b610e61565b6101b1610e71565b6101b1610351366004611d9a565b60046020526000908152604090205481565b7f00000000000000000000000000000000000000000000000000000000000000006101b1565b7f000000000000000000000000000000000000000000000000000000000000000061018b565b61018b6103bd366004611d6a565b610e83565b6101b16103d0366004611d9a565b6001600160a01b031660009081526008602052604090205490565b600554600090821061043a5760405162461bcd60e51b8152602060048201526013602482015272496e646578206f7574206f6620626f756e647360681b60448201526064015b60405180910390fd5b6005828154811061044d5761044d611e08565b6000918252602090912001546001600160a01b031692915050565b6007818154811061047857600080fd5b6000918252602090912001546001600160a01b0316905081565b6000600154600254670de0b6b3a76400006104ad9190611e34565b6104b79190611e61565b905090565b6000806104c7610ee0565b826000036104e857604051632793d17960e21b815260040160405180910390fd5b3360009081526004602052604090205483111561051857604051634c73c89b60e11b815260040160405180910390fd5b6003546001546105289085611e34565b6105329190611e61565b9150600354600254846105459190611e34565b61054f9190611e61565b905082600360008282546105639190611e75565b90915550503360009081526004602052604081208054859290610587908490611e75565b9250508190555081600160008282546105a09190611e75565b9250508190555080600260008282546105b99190611e75565b909155505060405163a9059cbb60e01b8152336004820152602481018390526000907f00000000000000000000000000000000000000000000000000000000000000006001600160a01b03169063a9059cbb906044016020604051808303816000875af115801561062e573d6000803e3d6000fd5b505050506040513d601f19601f820116820180604052508101906106529190611e88565b90508061067257604051630a9a15af60e01b815260040160405180910390fd5b60405163a9059cbb60e01b8152336004820152602481018390526000907f00000000000000000000000000000000000000000000000000000000000000006001600160a01b03169063a9059cbb906044016020604051808303816000875af11580156106e2573d6000803e3d6000fd5b505050506040513d601f19601f820116820180604052508101906107069190611e88565b90508061072657604051636e0ead9960e11b815260040160405180910390fd5b604080518581526020810185905290810186905233907f1dc8bb69df2b8e91fbdcbfcf93d951b3f0000f085a95fe3f7946d6161439245d9060600160405180910390a250506107756001600055565b915091565b6000610784610ee0565b82158061078f575081155b156107ad5760405163aacb28d360e01b815260040160405180910390fd5b6040516323b872dd60e01b81526000906001600160a01b037f000000000000000000000000000000000000000000000000000000000000000016906323b872dd9061080090339030908990600401611eaa565b6020604051808303816000875af115801561081f573d6000803e3d6000fd5b505050506040513d601f19601f820116820180604052508101906108439190611e88565b90508061086357604051630a9a15af60e01b815260040160405180910390fd5b6040516323b872dd60e01b81526000906001600160a01b037f000000000000000000000000000000000000000000000000000000000000000016906323b872dd906108b690339030908990600401611eaa565b6020604051808303816000875af11580156108d5573d6000803e3d6000fd5b505050506040513d601f19601f820116820180604052508101906108f99190611e88565b90508061091957604051636e0ead9960e11b815260040160405180910390fd5b600354600003610953576109356109308587611e34565b610f0a565b600381905533600090815260046020526040902081905592506109e0565b6000600154600354876109669190611e34565b6109709190611e61565b90506000600254600354876109859190611e34565b61098f9190611e61565b905080821061099e57806109a0565b815b945084600360008282546109b49190611ece565b909155505033600090815260046020526040812080548792906109d8908490611ece565b909155505050505b84600160008282546109f29190611ece565b925050819055508360026000828254610a0b9190611ece565b9091555050604080518681526020810186905290810184905233907f64b83944e79c3ce8d4c297411de637c3e102d064677aac0c163976ebdcd6f50e9060600160405180910390a25050610a5f6001600055565b92915050565b610a6d610ee0565b600954600003610a7c57426009555b7f00000000000000000000000000000000000000000000000000000000000000006001600160a01b0316826001600160a01b031614158015610af057507f00000000000000000000000000000000000000000000000000000000000000006001600160a01b0316826001600160a01b031614155b15610b0e5760405163c1ab6dc160e01b815260040160405180910390fd5b80600003610b2f5760405163aacb28d360e01b815260040160405180910390fd5b7f00000000000000000000000000000000000000000000000000000000000000006001600160a01b0316826001600160a01b031603610ca2576040516323b872dd60e01b81526000906001600160a01b037f000000000000000000000000000000000000000000000000000000000000000016906323b872dd90610bbb90339030908790600401611eaa565b6020604051808303816000875af1158015610bda573d6000803e3d6000fd5b505050506040513d601f19601f82011682018060405250810190610bfe9190611e88565b905080610c1e576040516312171d8360e31b815260040160405180910390fd5b336000908152600660205260408120549003610c7757600580546001810182556000919091527f036b6384b5eca791c62761152d0c79bb0604c104a5fb6f4eb0703f3154bb3db00180546001600160a01b031916331790555b3360009081526006602052604081208054849290610c96908490611ece565b90915550610dd7915050565b6040516323b872dd60e01b81526000906001600160a01b037f000000000000000000000000000000000000000000000000000000000000000016906323b872dd90610cf590339030908790600401611eaa565b6020604051808303816000875af1158015610d14573d6000803e3d6000fd5b505050506040513d601f19601f82011682018060405250810190610d389190611e88565b905080610d58576040516312171d8360e31b815260040160405180910390fd5b336000908152600860205260408120549003610db157600780546001810182556000919091527fa66cc928b5edb82af9bd49922954155ab7b0942694bea4ce44661d9a8736c6880180546001600160a01b031916331790555b3360009081526008602052604081208054849290610dd0908490611ece565b9091555050505b6040518181526001600160a01b0383169033907ffafc7288e0dac25b894161857c42c45197c5d1dfebaa49b38f8bcd2204d7dcb39060200160405180910390a37f000000000000000000000000000000000000000000000000000000000000000060095442610e469190611e75565b10610e5357610e53610f7a565b610e5d6001600055565b5050565b6005818154811061047857600080fd5b60006002546001546104b79190611e34565b6007546000908210610ecd5760405162461bcd60e51b8152602060048201526013602482015272496e646578206f7574206f6620626f756e647360681b6044820152606401610431565b6007828154811061044d5761044d611e08565b600260005403610f0357604051633ee5aeb560e01b815260040160405180910390fd5b6002600055565b60006003821115610f6b5750806000610f24600283611e61565b610f2f906001611ece565b90505b81811015610f6557905080600281610f4a8186611e61565b610f549190611ece565b610f5e9190611e61565b9050610f32565b50919050565b8115610f75575060015b919050565b7f000000000000000000000000000000000000000000000000000000000000000060095442610fa99190611e75565b1015610fc857604051634e0884a360e11b815260040160405180910390fd5b60008060005b600554811015611028576006600060058381548110610fef57610fef611e08565b60009182526020808320909101546001600160a01b0316835282019290925260400190205461101e9084611ece565b9250600101610fce565b5060005b60075481101561108657600860006007838154811061104d5761104d611e08565b60009182526020808320909101546001600160a01b0316835282019290925260400190205461107c9083611ece565b915060010161102c565b506001546002546000611097610e71565b905060015b7f00000000000000000000000000000000000000000000000000000000000000008111611159576110ed7f000000000000000000000000000000000000000000000000000000000000000087611e61565b6110f79085611ece565b93506111038483611e61565b925061112f7f000000000000000000000000000000000000000000000000000000000000000086611e61565b6111399084611ece565b92506111458383611e61565b93508061115181611ee1565b91505061109c565b50846001546111689190611ece565b8311156112085760015460408051858152602081019290925281018690527fd8ae58d8e5831515401110974e3af1ddd123b3e15270d97d5e322a79bff1b7e59060600160405180910390a16111bc83611bd9565b6111c7600154611bd9565b6111d087611bd9565b6040516020016111e293929190611f1e565b60408051601f198184030181529082905262461bcd60e51b825261043191600401611fe5565b836002546112169190611ece565b8211156112905760025460408051848152602081019290925281018590527f129b95add62310a64fcb3ef78b62b0b55c1449f4834e6d9d6fc1058e07e2d9409060600160405180910390a161126a82611bd9565b611275600254611bd9565b61127e86611bd9565b6040516020016111e293929190612018565b600083866001546112a19190611ece565b6112ab9190611e75565b9050600083866002546112be9190611ece565b6112c89190611e75565b905060005b600554811080156112de5750600088115b1561149957600060066000600584815481106112fc576112fc611e08565b60009182526020808320909101546001600160a01b0316835282019290925260400181205491508961132e8386611e34565b6113389190611e61565b905060007f00000000000000000000000000000000000000000000000000000000000000006001600160a01b031663a9059cbb6005868154811061137e5761137e611e08565b60009182526020909120015460405160e083901b6001600160e01b03191681526001600160a01b039091166004820152602481018590526044016020604051808303816000875af11580156113d7573d6000803e3d6000fd5b505050506040513d601f19601f820116820180604052508101906113fb9190611e88565b90508061141b576040516312171d8360e31b815260040160405180910390fd5b7fe4f5c2ae9d48b65f58decc2571c721db07b7aff237b6edd7b5b472d1a922e65e6005858154811061144f5761144f611e08565b60009182526020918290200154604080516001600160a01b039092168252918101859052428183015290519081900360600190a1505050808061149190611ee1565b9150506112cd565b5060005b600754811080156114ae5750600087115b1561166957600060086000600784815481106114cc576114cc611e08565b60009182526020808320909101546001600160a01b031683528201929092526040018120549150886114fe8387611e34565b6115089190611e61565b905060007f00000000000000000000000000000000000000000000000000000000000000006001600160a01b031663a9059cbb6007868154811061154e5761154e611e08565b60009182526020909120015460405160e083901b6001600160e01b03191681526001600160a01b039091166004820152602481018590526044016020604051808303816000875af11580156115a7573d6000803e3d6000fd5b505050506040513d601f19601f820116820180604052508101906115cb9190611e88565b9050806115eb576040516312171d8360e31b815260040160405180910390fd5b7f3e36f1793603b8c33d1cf4de656de5181c97659c327f4980f41a28b4417a6a5e6007858154811061161f5761161f611e08565b60009182526020918290200154604080516001600160a01b039092168252918101859052428183015290519081900360600190a1505050808061166190611ee1565b91505061149d565b506040516370a0823160e01b81523060048201527f00000000000000000000000000000000000000000000000000000000000000006001600160a01b0316906370a0823190602401602060405180830381865afa1580156116ce573d6000803e3d6000fd5b505050506040513d601f19601f820116820180604052508101906116f291906120e0565b8511156117cf576040516370a0823160e01b815230600482015285907f00000000000000000000000000000000000000000000000000000000000000006001600160a01b0316906370a0823190602401602060405180830381865afa15801561175f573d6000803e3d6000fd5b505050506040513d601f19601f8201168201806040525081019061178391906120e0565b604051636fdeba3b60e01b815260048101929092526024820152606060448201526013606482015272426173652043757272656e6379204c65616b2160681b608482015260a401610431565b6040516370a0823160e01b81523060048201527f00000000000000000000000000000000000000000000000000000000000000006001600160a01b0316906370a0823190602401602060405180830381865afa158015611833573d6000803e3d6000fd5b505050506040513d601f19601f8201168201806040525081019061185791906120e0565b841115611935576040516370a0823160e01b815230600482015284907f00000000000000000000000000000000000000000000000000000000000000006001600160a01b0316906370a0823190602401602060405180830381865afa1580156118c4573d6000803e3d6000fd5b505050506040513d601f19601f820116820180604052508101906118e891906120e0565b604051636fdeba3b60e01b81526004810192909252602482015260606044820152601460648201527351756f74652043757272656e6379204c65616b2160601b608482015260a401610431565b6040516370a0823160e01b81523060048201527f00000000000000000000000000000000000000000000000000000000000000006001600160a01b0316906370a0823190602401602060405180830381865afa158015611999573d6000803e3d6000fd5b505050506040513d601f19601f820116820180604052508101906119bd91906120e0565b6001556040516370a0823160e01b81523060048201527f00000000000000000000000000000000000000000000000000000000000000006001600160a01b0316906370a0823190602401602060405180830381865afa158015611a24573d6000803e3d6000fd5b505050506040513d601f19601f82011682018060405250810190611a4891906120e0565b6002554260095560005b600554811015611aa25760006006600060058481548110611a7557611a75611e08565b60009182526020808320909101546001600160a01b03168352820192909252604001902055600101611a52565b5060005b600754811015611af65760006008600060078481548110611ac957611ac9611e08565b60009182526020808320909101546001600160a01b03168352820192909252604001902055600101611aa6565b506040805160008152602081019182905251611b1491600591611cf0565b506040805160008152602081019182905251611b3291600791611cf0565b50600a546040516335313c2160e11b81523360048201526001600160a01b0390911690636a62784290602401600060405180830381600087803b158015611b7857600080fd5b505af1158015611b8c573d6000803e3d6000fd5b50506040805185815260208101859052428183015290517f3c893dd4bb6a91d0a50e34c95630ac9dbf7594be4909338412fcc34b63e86c7c9350908190036060019150a150505050505050565b606081600003611c005750506040805180820190915260018152600360fc1b602082015290565b8160005b8115611c2a5780611c1481611ee1565b9150611c239050600a83611e61565b9150611c04565b60008167ffffffffffffffff811115611c4557611c456120f9565b6040519080825280601f01601f191660200182016040528015611c6f576020820181803683370190505b5090506000611c7f600184611e75565b90505b8515611ce757611c93600a8761210f565b611c9e906030611ece565b60f81b8282611cac81612123565b935081518110611cbe57611cbe611e08565b60200101906001600160f81b031916908160001a905350611ce0600a87611e61565b9550611c82565b50949350505050565b828054828255906000526020600020908101928215611d45579160200282015b82811115611d4557825182546001600160a01b0319166001600160a01b03909116178255602090920191600190910190611d10565b50611d51929150611d55565b5090565b5b80821115611d515760008155600101611d56565b600060208284031215611d7c57600080fd5b5035919050565b80356001600160a01b0381168114610f7557600080fd5b600060208284031215611dac57600080fd5b611db582611d83565b9392505050565b60008060408385031215611dcf57600080fd5b50508035926020909101359150565b60008060408385031215611df157600080fd5b611dfa83611d83565b946020939093013593505050565b634e487b7160e01b600052603260045260246000fd5b634e487b7160e01b600052601160045260246000fd5b8082028115828204841417610a5f57610a5f611e1e565b634e487b7160e01b600052601260045260246000fd5b600082611e7057611e70611e4b565b500490565b81810381811115610a5f57610a5f611e1e565b600060208284031215611e9a57600080fd5b81518015158114611db557600080fd5b6001600160a01b039384168152919092166020820152604081019190915260600190565b80820180821115610a5f57610a5f611e1e565b600060018201611ef357611ef3611e1e565b5060010190565b60005b83811015611f15578181015183820152602001611efd565b50506000910152565b6e03130b9b29037bb32b9333637bb9d1608d1b81527f74656d706f726172794261736543757272656e6379526573657276653a200000600f82015260008451611f6e81602d850160208901611efa565b7f2c206261736543757272656e6379526573657276653a20000000000000000000602d918401918201528451611fab816044840160208901611efa565b602d8183010191505067016103132ba309d160c51b60178201528351611fd881601f840160208801611efa565b01601f0195945050505050565b6020815260008251806020840152612004816040850160208701611efa565b601f01601f19169190910160400192915050565b6f038bab7ba329037bb32b9333637bb9d160851b81527f74656d706f7261727951756f746543757272656e6379526573657276653a200060108201526000845161206981602f850160208901611efa565b7f2c2071756f746543757272656e6379526573657276653a200000000000000000602f9184019182015284516120a6816047840160208901611efa565b602f8183010191505067016103132ba309d160c51b601882015283516120d3816020840160208801611efa565b0160200195945050505050565b6000602082840312156120f257600080fd5b5051919050565b634e487b7160e01b600052604160045260246000fd5b60008261211e5761211e611e4b565b500690565b60008161213257612132611e1e565b50600019019056fea2646970667358221220fcae50b3620f6dd56893db3284c11391554807faf3364044cf39573d5614319364736f6c634300081c003360c060405234801561001057600080fd5b50604051610c85380380610c8583398101604081905261002f9161013c565b826040518060400160405280600e81526020016d29b0b7323bb4b1b4102a37b5b2b760911b815250604051806040016040528060088152602001670a6829c88ae9286960c31b8152508160039081610087919061021e565b506004610094828261021e565b5050506001600160a01b0381166100c557604051631e4fbdf760e01b81526000600482015260240160405180910390fd5b6100ce816100ea565b5042608081905260a092909252600691909155600755506102dc565b600580546001600160a01b038381166001600160a01b0319831681179093556040519116919082907f8be0079c531659141344cd1fd0a4f28419497f9722a3daafe3b4186f6b6457e090600090a35050565b60008060006060848603121561015157600080fd5b83516001600160a01b038116811461016857600080fd5b602085015160409095015190969495509392505050565b634e487b7160e01b600052604160045260246000fd5b600181811c908216806101a957607f821691505b6020821081036101c957634e487b7160e01b600052602260045260246000fd5b50919050565b601f82111561021957806000526020600020601f840160051c810160208510156101f65750805b601f840160051c820191505b818110156102165760008155600101610202565b50505b505050565b81516001600160401b038111156102375761023761017f565b61024b816102458454610195565b846101cf565b6020601f82116001811461027f57600083156102675750848201515b600019600385901b1c1916600184901b178455610216565b600084815260208120601f198516915b828110156102af578785015182556020948501946001909201910161028f565b50848210156102cd5786840151600019600387901b60f8161c191681555b50505050600190811b01905550565b60805160a0516109876102fe60003960006103230152600050506109876000f3fe608060405234801561001057600080fd5b50600436106100f55760003560e01c806370a0823111610097578063a9059cbb11610066578063a9059cbb146101e1578063bd80ee43146101f4578063dd62ed3e146101fd578063f2fde38b1461023657600080fd5b806370a082311461018d578063715018a6146101b65780638da5cb5b146101be57806395d89b41146101d957600080fd5b806323b872dd116100d357806323b872dd1461014d578063313ce567146101605780635a2bcc181461016f5780636a6278421461017857600080fd5b806306fdde03146100fa578063095ea7b31461011857806318160ddd1461013b575b600080fd5b610102610249565b60405161010f9190610793565b60405180910390f35b61012b6101263660046107fd565b6102db565b604051901515815260200161010f565b6002545b60405190815260200161010f565b61012b61015b366004610827565b6102f5565b6040516012815260200161010f565b61013f60075481565b61018b610186366004610864565b610319565b005b61013f61019b366004610864565b6001600160a01b031660009081526020819052604090205490565b61018b61037b565b6005546040516001600160a01b03909116815260200161010f565b61010261038f565b61012b6101ef3660046107fd565b61039e565b61013f60065481565b61013f61020b366004610886565b6001600160a01b03918216600090815260016020908152604080832093909416825291909152205490565b61018b610244366004610864565b6103ac565b606060038054610258906108b9565b80601f0160208091040260200160405190810160405280929190818152602001828054610284906108b9565b80156102d15780601f106102a6576101008083540402835291602001916102d1565b820191906000526020600020905b8154815290600101906020018083116102b457829003601f168201915b5050505050905090565b6000336102e98185856103ec565b60019150505b92915050565b6000336103038582856103fe565b61030e85858561047c565b506001949350505050565b6103216104db565b7f0000000000000000000000000000000000000000000000000000000000000000600654426103509190610909565b1061036c57426006556007546103689060029061091c565b6007555b61037881600754610508565b50565b6103836104db565b61038d6000610542565b565b606060048054610258906108b9565b6000336102e981858561047c565b6103b46104db565b6001600160a01b0381166103e357604051631e4fbdf760e01b8152600060048201526024015b60405180910390fd5b61037881610542565b6103f98383836001610594565b505050565b6001600160a01b038381166000908152600160209081526040808320938616835292905220546000198114610476578181101561046757604051637dc7a0d960e11b81526001600160a01b038416600482015260248101829052604481018390526064016103da565b61047684848484036000610594565b50505050565b6001600160a01b0383166104a657604051634b637e8f60e11b8152600060048201526024016103da565b6001600160a01b0382166104d05760405163ec442f0560e01b8152600060048201526024016103da565b6103f9838383610669565b6005546001600160a01b0316331461038d5760405163118cdaa760e01b81523360048201526024016103da565b6001600160a01b0382166105325760405163ec442f0560e01b8152600060048201526024016103da565b61053e60008383610669565b5050565b600580546001600160a01b038381166001600160a01b0319831681179093556040519116919082907f8be0079c531659141344cd1fd0a4f28419497f9722a3daafe3b4186f6b6457e090600090a35050565b6001600160a01b0384166105be5760405163e602df0560e01b8152600060048201526024016103da565b6001600160a01b0383166105e857604051634a1406b160e11b8152600060048201526024016103da565b6001600160a01b038085166000908152600160209081526040808320938716835292905220829055801561047657826001600160a01b0316846001600160a01b03167f8c5be1e5ebec7d5bd14f71427d1e84f3dd0314c0f7b2291e5b200ac8c7c3b9258460405161065b91815260200190565b60405180910390a350505050565b6001600160a01b038316610694578060026000828254610689919061093e565b909155506107069050565b6001600160a01b038316600090815260208190526040902054818110156106e75760405163391434e360e21b81526001600160a01b038516600482015260248101829052604481018390526064016103da565b6001600160a01b03841660009081526020819052604090209082900390555b6001600160a01b03821661072257600280548290039055610741565b6001600160a01b03821660009081526020819052604090208054820190555b816001600160a01b0316836001600160a01b03167fddf252ad1be2c89b69c2b068fc378daa952ba7f163c4a11628f55a4df523b3ef8360405161078691815260200190565b60405180910390a3505050565b602081526000825180602084015260005b818110156107c157602081860181015160408684010152016107a4565b506000604082850101526040601f19601f83011684010191505092915050565b80356001600160a01b03811681146107f857600080fd5b919050565b6000806040838503121561081057600080fd5b610819836107e1565b946020939093013593505050565b60008060006060848603121561083c57600080fd5b610845846107e1565b9250610853602085016107e1565b929592945050506040919091013590565b60006020828403121561087657600080fd5b61087f826107e1565b9392505050565b6000806040838503121561089957600080fd5b6108a2836107e1565b91506108b0602084016107e1565b90509250929050565b600181811c908216806108cd57607f821691505b6020821081036108ed57634e487b7160e01b600052602260045260246000fd5b50919050565b634e487b7160e01b600052601160045260246000fd5b818103818111156102ef576102ef6108f3565b60008261093957634e487b7160e01b600052601260045260246000fd5b500490565b808201808211156102ef576102ef6108f356fea26469706673582212205a36ae73015681f4c0d54658285199435f6337b9b473715a142a06f20ded83ef64736f6c634300081c00330000000000000000000000005fbdb2315678afecb367f032d93f642f64180aa3000000000000000000000000e7f1725e7734ce288f8367e1bb143e90bb3f0512000000000000000000000000000000000000000000000000000000000000000a000000000000000000000000000000000000000000000000000000000000000a",
        "nonce": "0x4",
        "chainId": "0x7a69"
      },
      "additionalContracts": [],
      "isFixedGasLimit": false
    },
    {
      "hash": "0xaa6aba1c7990171e365329a6884fe0d609efec00d2b95f8def0a70f19af6c9dc",
      "transactionType": "CALL",
      "contractName": "MyERC20Mock",
      "contractAddress": "0x5FbDB2315678afecb367f032d93F642f64180aa3",
      "function": "approve(address,uint256)",
      "arguments": [
        "0xDc64a140Aa3E981100a9becA4E685f962f0cF6C9",
        "115792089237316195423570985008687907853269984665640564039457584007913129639935"
      ],
      "transaction": {
        "from": "0xf39Fd6e51aad88F6F4ce6aB8827279cffFb92266",
        "to": "0x5FbDB2315678afecb367f032d93F642f64180aa3",
        "gas": "0xfbcf",
        "value": "0x0",
        "input": "0x095ea7b3000000000000000000000000dc64a140aa3e981100a9beca4e685f962f0cf6c9ffffffffffffffffffffffffffffffffffffffffffffffffffffffffffffffff",
        "nonce": "0x5",
        "chainId": "0x7a69"
      },
      "additionalContracts": [],
      "isFixedGasLimit": false
    },
    {
      "hash": "0x91b3ebaf0976fefd782e39fa5c9cfbdde1b8c940b0f3ce77239cd8a48302b544",
      "transactionType": "CALL",
      "contractName": "MyERC20Mock",
      "contractAddress": "0xe7f1725E7734CE288F8367e1Bb143E90bb3F0512",
      "function": "approve(address,uint256)",
      "arguments": [
        "0xDc64a140Aa3E981100a9becA4E685f962f0cF6C9",
        "115792089237316195423570985008687907853269984665640564039457584007913129639935"
      ],
      "transaction": {
        "from": "0xf39Fd6e51aad88F6F4ce6aB8827279cffFb92266",
        "to": "0xe7f1725E7734CE288F8367e1Bb143E90bb3F0512",
        "gas": "0xfbcf",
        "value": "0x0",
        "input": "0x095ea7b3000000000000000000000000dc64a140aa3e981100a9beca4e685f962f0cf6c9ffffffffffffffffffffffffffffffffffffffffffffffffffffffffffffffff",
        "nonce": "0x6",
        "chainId": "0x7a69"
      },
      "additionalContracts": [],
      "isFixedGasLimit": false
    },
    {
      "hash": "0xd718e864a838b9a1fd850403a27b39d9320cff3d762e158f3bfff135c0c86e04",
      "transactionType": "CALL",
      "contractName": "NoSandwichSwapPair",
      "contractAddress": "0xDc64a140Aa3E981100a9becA4E685f962f0cF6C9",
      "function": "addLiquidity(uint256,uint256)",
      "arguments": [
        "1000000000000000000000",
        "1000000000000000000000"
      ],
      "transaction": {
        "from": "0xf39Fd6e51aad88F6F4ce6aB8827279cffFb92266",
        "to": "0xDc64a140Aa3E981100a9becA4E685f962f0cF6C9",
        "gas": "0x4936e",
        "value": "0x0",
        "input": "0x9cd441da00000000000000000000000000000000000000000000003635c9adc5dea0000000000000000000000000000000000000000000000000003635c9adc5dea00000",
        "nonce": "0x7",
        "chainId": "0x7a69"
      },
      "additionalContracts": [],
      "isFixedGasLimit": false
    },
    {
      "hash": "0x08c3354ce957b3f37520d7f68c98e61f51e31239a82d26e20abdc974447bfc4e",
      "transactionType": "CALL",
      "contractName": "MyERC20Mock",
      "contractAddress": "0x5FbDB2315678afecb367f032d93F642f64180aa3",
      "function": "transferOwnership(address)",
      "arguments": [
        "0xf39Fd6e51aad88F6F4ce6aB8827279cffFb92266"
      ],
      "transaction": {
        "from": "0xf39Fd6e51aad88F6F4ce6aB8827279cffFb92266",
        "to": "0x5FbDB2315678afecb367f032d93F642f64180aa3",
        "gas": "0x8b81",
        "value": "0x0",
        "input": "0xf2fde38b000000000000000000000000f39fd6e51aad88f6f4ce6ab8827279cfffb92266",
        "nonce": "0x8",
        "chainId": "0x7a69"
      },
      "additionalContracts": [],
      "isFixedGasLimit": false
    },
    {
      "hash": "0x708afb2413192c3659ee0d8dcf7eb386051060fe517491efa67bf5d9ce96cb63",
      "transactionType": "CALL",
      "contractName": "MyERC20Mock",
      "contractAddress": "0xe7f1725E7734CE288F8367e1Bb143E90bb3F0512",
      "function": "transferOwnership(address)",
      "arguments": [
        "0xf39Fd6e51aad88F6F4ce6aB8827279cffFb92266"
      ],
      "transaction": {
        "from": "0xf39Fd6e51aad88F6F4ce6aB8827279cffFb92266",
        "to": "0xe7f1725E7734CE288F8367e1Bb143E90bb3F0512",
        "gas": "0x8b81",
        "value": "0x0",
        "input": "0xf2fde38b000000000000000000000000f39fd6e51aad88f6f4ce6ab8827279cfffb92266",
        "nonce": "0x9",
        "chainId": "0x7a69"
      },
      "additionalContracts": [],
      "isFixedGasLimit": false
    },
    {
      "hash": "0x1ab239088ddde60d88aa4a8c086b9f518cb645af6b24343f88f678a9948eafff",
      "transactionType": "CALL",
      "contractName": null,
      "contractAddress": "0x15AfABaA426334636008Bc15805760716E8b5c5E",
      "function": null,
      "arguments": null,
      "transaction": {
        "from": "0xf39Fd6e51aad88F6F4ce6aB8827279cffFb92266",
        "to": "0x15AfABaA426334636008Bc15805760716E8b5c5E",
        "gas": "0x714d",
        "value": "0x3635c9adc5dea00000",
        "input": "0x",
        "nonce": "0xa",
        "chainId": "0x7a69"
      },
      "additionalContracts": [],
      "isFixedGasLimit": false
    },
    {
      "hash": "0x5eaaed668b489336aaf3b911560bbacde86883da00644ce3cbc2a465b68beeb4",
      "transactionType": "CALL",
      "contractName": "MyERC20Mock",
      "contractAddress": "0x5FbDB2315678afecb367f032d93F642f64180aa3",
      "function": "mint(address,uint256)",
      "arguments": [
        "0x15AfABaA426334636008Bc15805760716E8b5c5E",
        "1000000000000000000000"
      ],
      "transaction": {
        "from": "0xf39Fd6e51aad88F6F4ce6aB8827279cffFb92266",
        "to": "0x5FbDB2315678afecb367f032d93F642f64180aa3",
        "gas": "0x1213d",
        "value": "0x0",
        "input": "0x40c10f1900000000000000000000000015afabaa426334636008bc15805760716e8b5c5e00000000000000000000000000000000000000000000003635c9adc5dea00000",
        "nonce": "0xb",
        "chainId": "0x7a69"
      },
      "additionalContracts": [],
      "isFixedGasLimit": false
    },
    {
      "hash": "0x5c27462b2a3b5a9ebdc522d61a14629dd7bd0c4809d237602e5654875aab0728",
      "transactionType": "CALL",
      "contractName": "MyERC20Mock",
      "contractAddress": "0xe7f1725E7734CE288F8367e1Bb143E90bb3F0512",
      "function": "mint(address,uint256)",
      "arguments": [
        "0x15AfABaA426334636008Bc15805760716E8b5c5E",
        "1000000000000000000000"
      ],
      "transaction": {
        "from": "0xf39Fd6e51aad88F6F4ce6aB8827279cffFb92266",
        "to": "0xe7f1725E7734CE288F8367e1Bb143E90bb3F0512",
        "gas": "0x1213d",
        "value": "0x0",
        "input": "0x40c10f1900000000000000000000000015afabaa426334636008bc15805760716e8b5c5e00000000000000000000000000000000000000000000003635c9adc5dea00000",
        "nonce": "0xc",
        "chainId": "0x7a69"
      },
      "additionalContracts": [],
      "isFixedGasLimit": false
    }
  ],
  "receipts": [
    {
      "status": "0x1",
      "cumulativeGasUsed": "0x98104",
      "logs": [
        {
          "address": "0x5FbDB2315678afecb367f032d93F642f64180aa3",
          "topics": [
            "0x8be0079c531659141344cd1fd0a4f28419497f9722a3daafe3b4186f6b6457e0",
            "0x0000000000000000000000000000000000000000000000000000000000000000",
            "0x000000000000000000000000f39fd6e51aad88f6f4ce6ab8827279cfffb92266"
          ],
          "data": "0x",
          "blockHash": "0x33b0795f7b9d1a76577f5587a45929f1cf4a7682d1cf90b9cf1bae7852f29ffd",
          "blockNumber": "0x6",
          "blockTimestamp": "0x670d1d18",
          "transactionHash": "0xb300505baf92bc174f1a41bf0113a68f0540a5457d32f11d47969364a102a936",
          "transactionIndex": "0x0",
          "logIndex": "0x0",
          "removed": false
        }
      ],
      "logsBloom": "0x00000000000000000000000000000000000000000000000000800000000000000000000000000000000000000000000000000000000000000000000000000000000000000000000000000000000000000001000000000000000000000000000000000040020000000000000100000800000000000000000000000000000000400000000000000000000000000000000000000000000000000000000200000000000000000000000000000000000000000000000000000000000000000000000000000040000000200000000000000000000000002000000000000000000020000000000000000000000000000000000000000000000000000000000000000000",
      "type": "0x2",
      "transactionHash": "0xb300505baf92bc174f1a41bf0113a68f0540a5457d32f11d47969364a102a936",
      "transactionIndex": "0x0",
      "blockHash": "0x33b0795f7b9d1a76577f5587a45929f1cf4a7682d1cf90b9cf1bae7852f29ffd",
      "blockNumber": "0x6",
      "gasUsed": "0x98104",
      "effectiveGasPrice": "0x1e925e89",
      "blobGasPrice": "0x1",
      "from": "0xf39Fd6e51aad88F6F4ce6aB8827279cffFb92266",
      "to": null,
      "contractAddress": "0x5FbDB2315678afecb367f032d93F642f64180aa3",
      "root": "0xb7d20357e375e25b81670f4abe73a3d9055ce04faca8d645967ce553beae0965"
    },
    {
      "status": "0x1",
      "cumulativeGasUsed": "0x130220",
      "logs": [
        {
          "address": "0xe7f1725E7734CE288F8367e1Bb143E90bb3F0512",
          "topics": [
            "0x8be0079c531659141344cd1fd0a4f28419497f9722a3daafe3b4186f6b6457e0",
            "0x0000000000000000000000000000000000000000000000000000000000000000",
            "0x000000000000000000000000f39fd6e51aad88f6f4ce6ab8827279cfffb92266"
          ],
          "data": "0x",
          "blockHash": "0x33b0795f7b9d1a76577f5587a45929f1cf4a7682d1cf90b9cf1bae7852f29ffd",
          "blockNumber": "0x6",
          "blockTimestamp": "0x670d1d18",
          "transactionHash": "0xf84e28cf3417c5171ff86e886531960504074c625fe4ea5e099c254d433730f2",
          "transactionIndex": "0x1",
          "logIndex": "0x1",
          "removed": false
        }
      ],
      "logsBloom": "0x00000000000000000000000000000000000000000000000000800000000000000000000000000000000000000000000010000000000000000000000000000000000000000000000000000000000000000001000000000000000000000000000000000000020000000000000100000800000000000000000000000000000000400000000000000000000000000000000000000000000000000000000000000000000000000000000000000000000000000000000000000000000000000000000000000000000000200000000000001000000000002000000000000000000020000000000000000000000000000000000000000000000000800000000000000000",
      "type": "0x2",
      "transactionHash": "0xf84e28cf3417c5171ff86e886531960504074c625fe4ea5e099c254d433730f2",
      "transactionIndex": "0x1",
      "blockHash": "0x33b0795f7b9d1a76577f5587a45929f1cf4a7682d1cf90b9cf1bae7852f29ffd",
      "blockNumber": "0x6",
      "gasUsed": "0x9811c",
      "effectiveGasPrice": "0x1e925e89",
      "blobGasPrice": "0x1",
      "from": "0xf39Fd6e51aad88F6F4ce6aB8827279cffFb92266",
      "to": null,
      "contractAddress": "0xe7f1725E7734CE288F8367e1Bb143E90bb3F0512",
      "root": "0xb7d20357e375e25b81670f4abe73a3d9055ce04faca8d645967ce553beae0965"
    },
    {
      "status": "0x1",
      "cumulativeGasUsed": "0x141654",
      "logs": [
        {
          "address": "0x5FbDB2315678afecb367f032d93F642f64180aa3",
          "topics": [
            "0xddf252ad1be2c89b69c2b068fc378daa952ba7f163c4a11628f55a4df523b3ef",
            "0x0000000000000000000000000000000000000000000000000000000000000000",
            "0x000000000000000000000000f39fd6e51aad88f6f4ce6ab8827279cfffb92266"
          ],
          "data": "0x00000000000000000000000000000000000000000000d3c21bcecceda1000000",
          "blockHash": "0x33b0795f7b9d1a76577f5587a45929f1cf4a7682d1cf90b9cf1bae7852f29ffd",
          "blockNumber": "0x6",
          "blockTimestamp": "0x670d1d18",
          "transactionHash": "0x699a015e0491ced0a36dcd311b7e63669725088d83edc47dd3acd434ac68233a",
          "transactionIndex": "0x2",
          "logIndex": "0x2",
          "removed": false
        }
      ],
      "logsBloom": "0x00000000000000000000000000000000000000000000000000000000000000000000000000000000000000000000000000000000000000000000000000000000000000000000000000000008000000000000000000000000000000000000000000000040020000000000000100000800000000000000000000000010000000000000000000000000000000000000000000000000000000000000000200000000000000000000000000000000000000000000000000000000000000000000000000000042000000200000000000000000000000002000000000000000000020000000000000000000000000000000000000000000000000000000000000000000",
      "type": "0x2",
      "transactionHash": "0x699a015e0491ced0a36dcd311b7e63669725088d83edc47dd3acd434ac68233a",
      "transactionIndex": "0x2",
      "blockHash": "0x33b0795f7b9d1a76577f5587a45929f1cf4a7682d1cf90b9cf1bae7852f29ffd",
      "blockNumber": "0x6",
      "gasUsed": "0x11434",
      "effectiveGasPrice": "0x1e925e89",
      "blobGasPrice": "0x1",
      "from": "0xf39Fd6e51aad88F6F4ce6aB8827279cffFb92266",
      "to": "0x5FbDB2315678afecb367f032d93F642f64180aa3",
      "contractAddress": null,
      "root": "0xb7d20357e375e25b81670f4abe73a3d9055ce04faca8d645967ce553beae0965"
    },
    {
      "status": "0x1",
      "cumulativeGasUsed": "0x152a88",
      "logs": [
        {
          "address": "0xe7f1725E7734CE288F8367e1Bb143E90bb3F0512",
          "topics": [
            "0xddf252ad1be2c89b69c2b068fc378daa952ba7f163c4a11628f55a4df523b3ef",
            "0x0000000000000000000000000000000000000000000000000000000000000000",
            "0x000000000000000000000000f39fd6e51aad88f6f4ce6ab8827279cfffb92266"
          ],
          "data": "0x00000000000000000000000000000000000000000000d3c21bcecceda1000000",
          "blockHash": "0x33b0795f7b9d1a76577f5587a45929f1cf4a7682d1cf90b9cf1bae7852f29ffd",
          "blockNumber": "0x6",
          "blockTimestamp": "0x670d1d18",
          "transactionHash": "0xbb3d432d06deb0846e774d57038edccc2e22f1925568bbd071905bd05557f235",
          "transactionIndex": "0x3",
          "logIndex": "0x3",
          "removed": false
        }
      ],
      "logsBloom": "0x00000000000000000000000000000000000000000000000000000000000000000000000000000000000000000000000010000000000000000000000000000000000000000000000000000008000000000000000000000000000000000000000000000000020000000000000100000800000000000000000000000010000000000000000000000000000000000000000000000000000000000000000000000000000000000000000000000000000000000000000000000000000000000000000000000002000000200000000000001000000000002000000000000000000020000000000000000000000000000000000000000000000000800000000000000000",
      "type": "0x2",
      "transactionHash": "0xbb3d432d06deb0846e774d57038edccc2e22f1925568bbd071905bd05557f235",
      "transactionIndex": "0x3",
      "blockHash": "0x33b0795f7b9d1a76577f5587a45929f1cf4a7682d1cf90b9cf1bae7852f29ffd",
      "blockNumber": "0x6",
      "gasUsed": "0x11434",
      "effectiveGasPrice": "0x1e925e89",
      "blobGasPrice": "0x1",
      "from": "0xf39Fd6e51aad88F6F4ce6aB8827279cffFb92266",
      "to": "0xe7f1725E7734CE288F8367e1Bb143E90bb3F0512",
      "contractAddress": null,
      "root": "0xb7d20357e375e25b81670f4abe73a3d9055ce04faca8d645967ce553beae0965"
    },
    {
      "status": "0x1",
      "cumulativeGasUsed": "0x3d6007",
      "logs": [
        {
          "address": "0x856e4424f806D16E8CBC702B3c0F2ede5468eae5",
          "topics": [
            "0x8be0079c531659141344cd1fd0a4f28419497f9722a3daafe3b4186f6b6457e0",
            "0x0000000000000000000000000000000000000000000000000000000000000000",
            "0x000000000000000000000000dc64a140aa3e981100a9beca4e685f962f0cf6c9"
          ],
          "data": "0x",
          "blockHash": "0x33b0795f7b9d1a76577f5587a45929f1cf4a7682d1cf90b9cf1bae7852f29ffd",
          "blockNumber": "0x6",
          "blockTimestamp": "0x670d1d18",
          "transactionHash": "0x436a3b3955475bdca43ef2e6aad9c2c20dfb245b1cd52a77f86a16d8a740a33b",
          "transactionIndex": "0x4",
          "logIndex": "0x4",
          "removed": false
        }
      ],
      "logsBloom": "0x00000000000000000000000000000000000000000000000000800000000000000000000000000400400000000000000000000000000000000000000000000000000000000000000800000000000000000001000000000001000000000000000000000000020000000000000000000800000000000000000000000000000000400000000000000000000000000000000000000000000000000000000000000000000000000000000000000000080000000000000000000000000000000000000000000000000000000000000000000000000000000000000000000000000020000004000000000000000000000000000000000000000000000000000000000000",
      "type": "0x2",
      "transactionHash": "0x436a3b3955475bdca43ef2e6aad9c2c20dfb245b1cd52a77f86a16d8a740a33b",
      "transactionIndex": "0x4",
      "blockHash": "0x33b0795f7b9d1a76577f5587a45929f1cf4a7682d1cf90b9cf1bae7852f29ffd",
      "blockNumber": "0x6",
      "gasUsed": "0x28357f",
      "effectiveGasPrice": "0x1e925e89",
      "blobGasPrice": "0x1",
      "from": "0xf39Fd6e51aad88F6F4ce6aB8827279cffFb92266",
      "to": null,
      "contractAddress": "0xDc64a140Aa3E981100a9becA4E685f962f0cF6C9",
      "root": "0xb7d20357e375e25b81670f4abe73a3d9055ce04faca8d645967ce553beae0965"
    },
    {
      "status": "0x1",
      "cumulativeGasUsed": "0x3e1656",
      "logs": [
        {
          "address": "0x5FbDB2315678afecb367f032d93F642f64180aa3",
          "topics": [
            "0x8c5be1e5ebec7d5bd14f71427d1e84f3dd0314c0f7b2291e5b200ac8c7c3b925",
            "0x000000000000000000000000f39fd6e51aad88f6f4ce6ab8827279cfffb92266",
            "0x000000000000000000000000dc64a140aa3e981100a9beca4e685f962f0cf6c9"
          ],
          "data": "0xffffffffffffffffffffffffffffffffffffffffffffffffffffffffffffffff",
          "blockHash": "0x33b0795f7b9d1a76577f5587a45929f1cf4a7682d1cf90b9cf1bae7852f29ffd",
          "blockNumber": "0x6",
          "blockTimestamp": "0x670d1d18",
          "transactionHash": "0xaa6aba1c7990171e365329a6884fe0d609efec00d2b95f8def0a70f19af6c9dc",
          "transactionIndex": "0x5",
          "logIndex": "0x5",
          "removed": false
        }
      ],
      "logsBloom": "0x00000000000000000000000000000000000000000000000000000000000000000000000000000000400000000000000000000000000000000000000000200000000000000000000000000000000000000000000000000001000000000000000000000040000000000000000100000000000000000000000000000000000000000000000000000000000000000000000000000000000000000000000200000000020000000000000000000000080000000000000000000000000000000000000000000040000000200000000000000000000000002000000000000000000000000010000000000000000000000000000000000000000000000000000000000000",
      "type": "0x2",
      "transactionHash": "0xaa6aba1c7990171e365329a6884fe0d609efec00d2b95f8def0a70f19af6c9dc",
      "transactionIndex": "0x5",
      "blockHash": "0x33b0795f7b9d1a76577f5587a45929f1cf4a7682d1cf90b9cf1bae7852f29ffd",
      "blockNumber": "0x6",
      "gasUsed": "0xb64f",
      "effectiveGasPrice": "0x1e925e89",
      "blobGasPrice": "0x1",
      "from": "0xf39Fd6e51aad88F6F4ce6aB8827279cffFb92266",
      "to": "0x5FbDB2315678afecb367f032d93F642f64180aa3",
      "contractAddress": null,
      "root": "0xb7d20357e375e25b81670f4abe73a3d9055ce04faca8d645967ce553beae0965"
    },
    {
      "status": "0x1",
      "cumulativeGasUsed": "0x3ecca5",
      "logs": [
        {
          "address": "0xe7f1725E7734CE288F8367e1Bb143E90bb3F0512",
          "topics": [
            "0x8c5be1e5ebec7d5bd14f71427d1e84f3dd0314c0f7b2291e5b200ac8c7c3b925",
            "0x000000000000000000000000f39fd6e51aad88f6f4ce6ab8827279cfffb92266",
            "0x000000000000000000000000dc64a140aa3e981100a9beca4e685f962f0cf6c9"
          ],
          "data": "0xffffffffffffffffffffffffffffffffffffffffffffffffffffffffffffffff",
          "blockHash": "0x33b0795f7b9d1a76577f5587a45929f1cf4a7682d1cf90b9cf1bae7852f29ffd",
          "blockNumber": "0x6",
          "blockTimestamp": "0x670d1d18",
          "transactionHash": "0x91b3ebaf0976fefd782e39fa5c9cfbdde1b8c940b0f3ce77239cd8a48302b544",
          "transactionIndex": "0x6",
          "logIndex": "0x6",
          "removed": false
        }
      ],
      "logsBloom": "0x00000000000000000000000000000000000000000000000000000000000000000000000000000000400000000000000010000000000000000000000000200000000000000000000000000000000000000000000000000001000000000000000000000000000000000000000100000000000000000000000000000000000000000000000000000000000000000000000000000000000000000000000000000000020000000000000000000000080000000000000000000000000000000000000000000000000000200000000000001000000000002000000000000000000000000010000000000000000000000000000000000000000000800000000000000000",
      "type": "0x2",
      "transactionHash": "0x91b3ebaf0976fefd782e39fa5c9cfbdde1b8c940b0f3ce77239cd8a48302b544",
      "transactionIndex": "0x6",
      "blockHash": "0x33b0795f7b9d1a76577f5587a45929f1cf4a7682d1cf90b9cf1bae7852f29ffd",
      "blockNumber": "0x6",
      "gasUsed": "0xb64f",
      "effectiveGasPrice": "0x1e925e89",
      "blobGasPrice": "0x1",
      "from": "0xf39Fd6e51aad88F6F4ce6aB8827279cffFb92266",
      "to": "0xe7f1725E7734CE288F8367e1Bb143E90bb3F0512",
      "contractAddress": null,
      "root": "0xb7d20357e375e25b81670f4abe73a3d9055ce04faca8d645967ce553beae0965"
    },
    {
      "status": "0x1",
      "cumulativeGasUsed": "0x41eda0",
      "logs": [
        {
          "address": "0x5FbDB2315678afecb367f032d93F642f64180aa3",
          "topics": [
            "0xddf252ad1be2c89b69c2b068fc378daa952ba7f163c4a11628f55a4df523b3ef",
            "0x000000000000000000000000f39fd6e51aad88f6f4ce6ab8827279cfffb92266",
            "0x000000000000000000000000dc64a140aa3e981100a9beca4e685f962f0cf6c9"
          ],
          "data": "0x00000000000000000000000000000000000000000000003635c9adc5dea00000",
          "blockHash": "0x33b0795f7b9d1a76577f5587a45929f1cf4a7682d1cf90b9cf1bae7852f29ffd",
          "blockNumber": "0x6",
          "blockTimestamp": "0x670d1d18",
          "transactionHash": "0xd718e864a838b9a1fd850403a27b39d9320cff3d762e158f3bfff135c0c86e04",
          "transactionIndex": "0x7",
          "logIndex": "0x7",
          "removed": false
        },
        {
          "address": "0xe7f1725E7734CE288F8367e1Bb143E90bb3F0512",
          "topics": [
            "0xddf252ad1be2c89b69c2b068fc378daa952ba7f163c4a11628f55a4df523b3ef",
            "0x000000000000000000000000f39fd6e51aad88f6f4ce6ab8827279cfffb92266",
            "0x000000000000000000000000dc64a140aa3e981100a9beca4e685f962f0cf6c9"
          ],
          "data": "0x00000000000000000000000000000000000000000000003635c9adc5dea00000",
          "blockHash": "0x33b0795f7b9d1a76577f5587a45929f1cf4a7682d1cf90b9cf1bae7852f29ffd",
          "blockNumber": "0x6",
          "blockTimestamp": "0x670d1d18",
          "transactionHash": "0xd718e864a838b9a1fd850403a27b39d9320cff3d762e158f3bfff135c0c86e04",
          "transactionIndex": "0x7",
          "logIndex": "0x8",
          "removed": false
        },
        {
          "address": "0xDc64a140Aa3E981100a9becA4E685f962f0cF6C9",
          "topics": [
            "0x64b83944e79c3ce8d4c297411de637c3e102d064677aac0c163976ebdcd6f50e",
            "0x000000000000000000000000f39fd6e51aad88f6f4ce6ab8827279cfffb92266"
          ],
          "data": "0x00000000000000000000000000000000000000000000003635c9adc5dea0000000000000000000000000000000000000000000000000003635c9adc5dea0000000000000000000000000000000000000000000000000003635c9adc5dea00000",
          "blockHash": "0x33b0795f7b9d1a76577f5587a45929f1cf4a7682d1cf90b9cf1bae7852f29ffd",
          "blockNumber": "0x6",
          "blockTimestamp": "0x670d1d18",
          "transactionHash": "0xd718e864a838b9a1fd850403a27b39d9320cff3d762e158f3bfff135c0c86e04",
          "transactionIndex": "0x7",
          "logIndex": "0x9",
          "removed": false
        }
      ],
      "logsBloom": "0x00000000000000000000000000000000000000000000000000000000000000000000000000000000400000000000000010000000000000000000000000000000000001000000000000000008800000000000000000000001000000000000000000000040000000000000000100000000000000000000000000000010000000000000000000000000000000000000000000000000000000000000000200000000000000000000000000000000080000000000000000000000000000000000000000000042000000200000000000001000000000002020000000000000020000000000000000000000000000000000000000000001000000800100000000000000",
      "type": "0x2",
      "transactionHash": "0xd718e864a838b9a1fd850403a27b39d9320cff3d762e158f3bfff135c0c86e04",
      "transactionIndex": "0x7",
      "blockHash": "0x33b0795f7b9d1a76577f5587a45929f1cf4a7682d1cf90b9cf1bae7852f29ffd",
      "blockNumber": "0x6",
      "gasUsed": "0x320fb",
      "effectiveGasPrice": "0x1e925e89",
      "blobGasPrice": "0x1",
      "from": "0xf39Fd6e51aad88F6F4ce6aB8827279cffFb92266",
      "to": "0xDc64a140Aa3E981100a9becA4E685f962f0cF6C9",
      "contractAddress": null,
      "root": "0xb7d20357e375e25b81670f4abe73a3d9055ce04faca8d645967ce553beae0965"
    },
    {
      "status": "0x1",
      "cumulativeGasUsed": "0x4252a0",
      "logs": [
        {
          "address": "0x5FbDB2315678afecb367f032d93F642f64180aa3",
          "topics": [
            "0x8be0079c531659141344cd1fd0a4f28419497f9722a3daafe3b4186f6b6457e0",
            "0x000000000000000000000000f39fd6e51aad88f6f4ce6ab8827279cfffb92266",
            "0x000000000000000000000000f39fd6e51aad88f6f4ce6ab8827279cfffb92266"
          ],
          "data": "0x",
          "blockHash": "0x33b0795f7b9d1a76577f5587a45929f1cf4a7682d1cf90b9cf1bae7852f29ffd",
          "blockNumber": "0x6",
          "blockTimestamp": "0x670d1d18",
          "transactionHash": "0x08c3354ce957b3f37520d7f68c98e61f51e31239a82d26e20abdc974447bfc4e",
          "transactionIndex": "0x8",
          "logIndex": "0xa",
          "removed": false
        }
      ],
      "logsBloom": "0x00000000000000000000000000000000000000000000000000800000000000000000000000000000000000000000000000000000000000000000000000000000000000000000000000000000000000000001000000000000000000000000000000000040000000000000000100000000000000000000000000000000000000400000000000000000000000000000000000000000000000000000000200000000000000000000000000000000000000000000000000000000000000000000000000000040000000200000000000000000000000002000000000000000000000000000000000000000000000000000000000000000000000000000000000000000",
      "type": "0x2",
      "transactionHash": "0x08c3354ce957b3f37520d7f68c98e61f51e31239a82d26e20abdc974447bfc4e",
      "transactionIndex": "0x8",
      "blockHash": "0x33b0795f7b9d1a76577f5587a45929f1cf4a7682d1cf90b9cf1bae7852f29ffd",
      "blockNumber": "0x6",
      "gasUsed": "0x6500",
      "effectiveGasPrice": "0x1e925e89",
      "blobGasPrice": "0x1",
      "from": "0xf39Fd6e51aad88F6F4ce6aB8827279cffFb92266",
      "to": "0x5FbDB2315678afecb367f032d93F642f64180aa3",
      "contractAddress": null,
      "root": "0xb7d20357e375e25b81670f4abe73a3d9055ce04faca8d645967ce553beae0965"
    },
    {
      "status": "0x1",
      "cumulativeGasUsed": "0x42b7a0",
      "logs": [
        {
          "address": "0xe7f1725E7734CE288F8367e1Bb143E90bb3F0512",
          "topics": [
            "0x8be0079c531659141344cd1fd0a4f28419497f9722a3daafe3b4186f6b6457e0",
            "0x000000000000000000000000f39fd6e51aad88f6f4ce6ab8827279cfffb92266",
            "0x000000000000000000000000f39fd6e51aad88f6f4ce6ab8827279cfffb92266"
          ],
          "data": "0x",
          "blockHash": "0x33b0795f7b9d1a76577f5587a45929f1cf4a7682d1cf90b9cf1bae7852f29ffd",
          "blockNumber": "0x6",
          "blockTimestamp": "0x670d1d18",
          "transactionHash": "0x708afb2413192c3659ee0d8dcf7eb386051060fe517491efa67bf5d9ce96cb63",
          "transactionIndex": "0x9",
          "logIndex": "0xb",
          "removed": false
        }
      ],
      "logsBloom": "0x00000000000000000000000000000000000000000000000000800000000000000000000000000000000000000000000010000000000000000000000000000000000000000000000000000000000000000001000000000000000000000000000000000000000000000000000100000000000000000000000000000000000000400000000000000000000000000000000000000000000000000000000000000000000000000000000000000000000000000000000000000000000000000000000000000000000000200000000000001000000000002000000000000000000000000000000000000000000000000000000000000000000000800000000000000000",
      "type": "0x2",
      "transactionHash": "0x708afb2413192c3659ee0d8dcf7eb386051060fe517491efa67bf5d9ce96cb63",
      "transactionIndex": "0x9",
      "blockHash": "0x33b0795f7b9d1a76577f5587a45929f1cf4a7682d1cf90b9cf1bae7852f29ffd",
      "blockNumber": "0x6",
      "gasUsed": "0x6500",
      "effectiveGasPrice": "0x1e925e89",
      "blobGasPrice": "0x1",
      "from": "0xf39Fd6e51aad88F6F4ce6aB8827279cffFb92266",
      "to": "0xe7f1725E7734CE288F8367e1Bb143E90bb3F0512",
      "contractAddress": null,
      "root": "0xb7d20357e375e25b81670f4abe73a3d9055ce04faca8d645967ce553beae0965"
    },
    {
      "status": "0x1",
      "cumulativeGasUsed": "0x4309a8",
      "logs": [],
      "logsBloom": "0x00000000000000000000000000000000000000000000000000000000000000000000000000000000000000000000000000000000000000000000000000000000000000000000000000000000000000000000000000000000000000000000000000000000000000000000000000000000000000000000000000000000000000000000000000000000000000000000000000000000000000000000000000000000000000000000000000000000000000000000000000000000000000000000000000000000000000000000000000000000000000000000000000000000000000000000000000000000000000000000000000000000000000000000000000000000",
      "type": "0x2",
      "transactionHash": "0x1ab239088ddde60d88aa4a8c086b9f518cb645af6b24343f88f678a9948eafff",
      "transactionIndex": "0xa",
      "blockHash": "0x33b0795f7b9d1a76577f5587a45929f1cf4a7682d1cf90b9cf1bae7852f29ffd",
      "blockNumber": "0x6",
      "gasUsed": "0x5208",
      "effectiveGasPrice": "0x1e925e89",
      "blobGasPrice": "0x1",
      "from": "0xf39Fd6e51aad88F6F4ce6aB8827279cffFb92266",
      "to": "0x15AfABaA426334636008Bc15805760716E8b5c5E",
      "contractAddress": null,
      "root": "0xb7d20357e375e25b81670f4abe73a3d9055ce04faca8d645967ce553beae0965"
    },
    {
      "status": "0x1",
      "cumulativeGasUsed": "0x43db10",
      "logs": [
        {
          "address": "0x5FbDB2315678afecb367f032d93F642f64180aa3",
          "topics": [
            "0xddf252ad1be2c89b69c2b068fc378daa952ba7f163c4a11628f55a4df523b3ef",
            "0x0000000000000000000000000000000000000000000000000000000000000000",
            "0x00000000000000000000000015afabaa426334636008bc15805760716e8b5c5e"
          ],
          "data": "0x00000000000000000000000000000000000000000000003635c9adc5dea00000",
          "blockHash": "0x33b0795f7b9d1a76577f5587a45929f1cf4a7682d1cf90b9cf1bae7852f29ffd",
          "blockNumber": "0x6",
          "blockTimestamp": "0x670d1d18",
          "transactionHash": "0x5eaaed668b489336aaf3b911560bbacde86883da00644ce3cbc2a465b68beeb4",
          "transactionIndex": "0xb",
          "logIndex": "0xc",
          "removed": false
        }
      ],
      "logsBloom": "0x00000000000000000000000000000000000000000000000000000000000000000000000000000000001000000000000000000000800000000000000000000000000000000000000000000008000000000000000000000000000000000000000000000040020000000000000000000800000000000000000000000010000000000000000000000000040000000000000000000000000000000000000200000000000000000000000000000000000000000000000000000000000000000000000000000042000000000000000000000000000000000000000000000000000020000000000000000000000000000000000000000000000000000000000000000000",
      "type": "0x2",
      "transactionHash": "0x5eaaed668b489336aaf3b911560bbacde86883da00644ce3cbc2a465b68beeb4",
      "transactionIndex": "0xb",
      "blockHash": "0x33b0795f7b9d1a76577f5587a45929f1cf4a7682d1cf90b9cf1bae7852f29ffd",
      "blockNumber": "0x6",
      "gasUsed": "0xd168",
      "effectiveGasPrice": "0x1e925e89",
      "blobGasPrice": "0x1",
      "from": "0xf39Fd6e51aad88F6F4ce6aB8827279cffFb92266",
      "to": "0x5FbDB2315678afecb367f032d93F642f64180aa3",
      "contractAddress": null,
      "root": "0xb7d20357e375e25b81670f4abe73a3d9055ce04faca8d645967ce553beae0965"
    },
    {
      "status": "0x1",
      "cumulativeGasUsed": "0x44ac78",
      "logs": [
        {
          "address": "0xe7f1725E7734CE288F8367e1Bb143E90bb3F0512",
          "topics": [
            "0xddf252ad1be2c89b69c2b068fc378daa952ba7f163c4a11628f55a4df523b3ef",
            "0x0000000000000000000000000000000000000000000000000000000000000000",
            "0x00000000000000000000000015afabaa426334636008bc15805760716e8b5c5e"
          ],
          "data": "0x00000000000000000000000000000000000000000000003635c9adc5dea00000",
          "blockHash": "0x33b0795f7b9d1a76577f5587a45929f1cf4a7682d1cf90b9cf1bae7852f29ffd",
          "blockNumber": "0x6",
          "blockTimestamp": "0x670d1d18",
          "transactionHash": "0x5c27462b2a3b5a9ebdc522d61a14629dd7bd0c4809d237602e5654875aab0728",
          "transactionIndex": "0xc",
          "logIndex": "0xd",
          "removed": false
        }
      ],
      "logsBloom": "0x00000000000000000000000000000000000000000000000000000000000000000000000000000000001000000000000010000000800000000000000000000000000000000000000000000008000000000000000000000000000000000000000000000000020000000000000000000800000000000000000000000010000000000000000000000000040000000000000000000000000000000000000000000000000000000000000000000000000000000000000000000000000000000000000000000002000000000000000000001000000000000000000000000000000020000000000000000000000000000000000000000000000000800000000000000000",
      "type": "0x2",
      "transactionHash": "0x5c27462b2a3b5a9ebdc522d61a14629dd7bd0c4809d237602e5654875aab0728",
      "transactionIndex": "0xc",
      "blockHash": "0x33b0795f7b9d1a76577f5587a45929f1cf4a7682d1cf90b9cf1bae7852f29ffd",
      "blockNumber": "0x6",
      "gasUsed": "0xd168",
      "effectiveGasPrice": "0x1e925e89",
      "blobGasPrice": "0x1",
      "from": "0xf39Fd6e51aad88F6F4ce6aB8827279cffFb92266",
      "to": "0xe7f1725E7734CE288F8367e1Bb143E90bb3F0512",
      "contractAddress": null,
      "root": "0xb7d20357e375e25b81670f4abe73a3d9055ce04faca8d645967ce553beae0965"
    }
  ],
  "libraries": [],
  "pending": [],
  "returns": {
    "3": {
      "internal_type": "contract NoSandwichSwapPair",
      "value": "0xDc64a140Aa3E981100a9becA4E685f962f0cF6C9"
    },
    "0": {
      "internal_type": "address",
      "value": "0xf39Fd6e51aad88F6F4ce6aB8827279cffFb92266"
    },
    "1": {
      "internal_type": "contract MyERC20Mock",
      "value": "0x5FbDB2315678afecb367f032d93F642f64180aa3"
    },
    "2": {
      "internal_type": "contract MyERC20Mock",
      "value": "0xe7f1725E7734CE288F8367e1Bb143E90bb3F0512"
    }
  },
  "timestamp": 1728912664,
  "chain": 31337,
  "commit": "9befc6d"
}