{
  "transactions": [
    {
      "hash": "0xc3c8f63b7ce3a17f228afca6db041b622f0095f9ef347baabbc121769b4b9be6",
      "transactionType": "CREATE",
      "contractName": "MyERC20Mock",
      "contractAddress": "0x627b9a657eac8c3463ad17009a424dfe3fdbd0b1",
      "function": null,
      "arguments": [
        "Base",
        "BASE",
        "0xf39Fd6e51aad88F6F4ce6aB8827279cffFb92266"
      ],
      "transaction": {
        "from": "0xf39fd6e51aad88f6f4ce6ab8827279cfffb92266",
        "gas": "0xc5aeb",
        "value": "0x0",
        "input": "0x608060405234801561001057600080fd5b50604051610c3f380380610c3f83398101604081905261002f91610199565b808383600361003e83826102ad565b50600461004b82826102ad565b5050506001600160a01b03811661007c57604051631e4fbdf760e01b81526000600482015260240160405180910390fd5b6100858161008e565b5050505061036b565b600580546001600160a01b038381166001600160a01b0319831681179093556040519116919082907f8be0079c531659141344cd1fd0a4f28419497f9722a3daafe3b4186f6b6457e090600090a35050565b634e487b7160e01b600052604160045260246000fd5b600082601f83011261010757600080fd5b81516001600160401b03811115610120576101206100e0565b604051601f8201601f19908116603f011681016001600160401b038111828210171561014e5761014e6100e0565b60405281815283820160200185101561016657600080fd5b60005b8281101561018557602081860181015183830182015201610169565b506000918101602001919091529392505050565b6000806000606084860312156101ae57600080fd5b83516001600160401b038111156101c457600080fd5b6101d0868287016100f6565b602086015190945090506001600160401b038111156101ee57600080fd5b6101fa868287016100f6565b604086015190935090506001600160a01b038116811461021957600080fd5b809150509250925092565b600181811c9082168061023857607f821691505b60208210810361025857634e487b7160e01b600052602260045260246000fd5b50919050565b601f8211156102a857806000526020600020601f840160051c810160208510156102855750805b601f840160051c820191505b818110156102a55760008155600101610291565b50505b505050565b81516001600160401b038111156102c6576102c66100e0565b6102da816102d48454610224565b8461025e565b6020601f82116001811461030e57600083156102f65750848201515b600019600385901b1c1916600184901b1784556102a5565b600084815260208120601f198516915b8281101561033e578785015182556020948501946001909201910161031e565b508482101561035c5786840151600019600387901b60f8161c191681555b50505050600190811b01905550565b6108c58061037a6000396000f3fe608060405234801561001057600080fd5b50600436106100cf5760003560e01c806370a082311161008c57806395d89b411161006657806395d89b41146101aa578063a9059cbb146101b2578063dd62ed3e146101c5578063f2fde38b146101fe57600080fd5b806370a082311461015e578063715018a6146101875780638da5cb5b1461018f57600080fd5b806306fdde03146100d4578063095ea7b3146100f257806318160ddd1461011557806323b872dd14610127578063313ce5671461013a57806340c10f1914610149575b600080fd5b6100dc610211565b6040516100e9919061070e565b60405180910390f35b610105610100366004610778565b6102a3565b60405190151581526020016100e9565b6002545b6040519081526020016100e9565b6101056101353660046107a2565b6102bd565b604051601281526020016100e9565b61015c610157366004610778565b6102e1565b005b61011961016c3660046107df565b6001600160a01b031660009081526020819052604090205490565b61015c6102f7565b6005546040516001600160a01b0390911681526020016100e9565b6100dc61030b565b6101056101c0366004610778565b61031a565b6101196101d3366004610801565b6001600160a01b03918216600090815260016020908152604080832093909416825291909152205490565b61015c61020c3660046107df565b610328565b60606003805461022090610834565b80601f016020809104026020016040519081016040528092919081815260200182805461024c90610834565b80156102995780601f1061026e57610100808354040283529160200191610299565b820191906000526020600020905b81548152906001019060200180831161027c57829003601f168201915b5050505050905090565b6000336102b181858561036b565b60019150505b92915050565b6000336102cb85828561037d565b6102d68585856103fb565b506001949350505050565b6102e961045a565b6102f38282610487565b5050565b6102ff61045a565b61030960006104bd565b565b60606004805461022090610834565b6000336102b18185856103fb565b61033061045a565b6001600160a01b03811661035f57604051631e4fbdf760e01b8152600060048201526024015b60405180910390fd5b610368816104bd565b50565b610378838383600161050f565b505050565b6001600160a01b0383811660009081526001602090815260408083209386168352929052205460001981146103f557818110156103e657604051637dc7a0d960e11b81526001600160a01b03841660048201526024810182905260448101839052606401610356565b6103f58484848403600061050f565b50505050565b6001600160a01b03831661042557604051634b637e8f60e11b815260006004820152602401610356565b6001600160a01b03821661044f5760405163ec442f0560e01b815260006004820152602401610356565b6103788383836105e4565b6005546001600160a01b031633146103095760405163118cdaa760e01b8152336004820152602401610356565b6001600160a01b0382166104b15760405163ec442f0560e01b815260006004820152602401610356565b6102f3600083836105e4565b600580546001600160a01b038381166001600160a01b0319831681179093556040519116919082907f8be0079c531659141344cd1fd0a4f28419497f9722a3daafe3b4186f6b6457e090600090a35050565b6001600160a01b0384166105395760405163e602df0560e01b815260006004820152602401610356565b6001600160a01b03831661056357604051634a1406b160e11b815260006004820152602401610356565b6001600160a01b03808516600090815260016020908152604080832093871683529290522082905580156103f557826001600160a01b0316846001600160a01b03167f8c5be1e5ebec7d5bd14f71427d1e84f3dd0314c0f7b2291e5b200ac8c7c3b925846040516105d691815260200190565b60405180910390a350505050565b6001600160a01b03831661060f578060026000828254610604919061086e565b909155506106819050565b6001600160a01b038316600090815260208190526040902054818110156106625760405163391434e360e21b81526001600160a01b03851660048201526024810182905260448101839052606401610356565b6001600160a01b03841660009081526020819052604090209082900390555b6001600160a01b03821661069d576002805482900390556106bc565b6001600160a01b03821660009081526020819052604090208054820190555b816001600160a01b0316836001600160a01b03167fddf252ad1be2c89b69c2b068fc378daa952ba7f163c4a11628f55a4df523b3ef8360405161070191815260200190565b60405180910390a3505050565b602081526000825180602084015260005b8181101561073c576020818601810151604086840101520161071f565b506000604082850101526040601f19601f83011684010191505092915050565b80356001600160a01b038116811461077357600080fd5b919050565b6000806040838503121561078b57600080fd5b6107948361075c565b946020939093013593505050565b6000806000606084860312156107b757600080fd5b6107c08461075c565b92506107ce6020850161075c565b929592945050506040919091013590565b6000602082840312156107f157600080fd5b6107fa8261075c565b9392505050565b6000806040838503121561081457600080fd5b61081d8361075c565b915061082b6020840161075c565b90509250929050565b600181811c9082168061084857607f821691505b60208210810361086857634e487b7160e01b600052602260045260246000fd5b50919050565b808201808211156102b757634e487b7160e01b600052601160045260246000fdfea2646970667358221220e96b9e23415b987561d332521b087a3f5c2eb6e62ecd0f97c614690c34b6a86b64736f6c634300081c0033000000000000000000000000000000000000000000000000000000000000006000000000000000000000000000000000000000000000000000000000000000a0000000000000000000000000f39fd6e51aad88f6f4ce6ab8827279cfffb922660000000000000000000000000000000000000000000000000000000000000004426173650000000000000000000000000000000000000000000000000000000000000000000000000000000000000000000000000000000000000000000000044241534500000000000000000000000000000000000000000000000000000000",
        "nonce": "0x13c",
        "chainId": "0x507"
      },
      "additionalContracts": [],
      "isFixedGasLimit": false
    },
    {
      "hash": "0x8c1fda7ce4235a345ed319c3c5dd74c1458ab89a65c33bcd714cb22bdf6d1629",
      "transactionType": "CREATE",
      "contractName": "MyERC20Mock",
      "contractAddress": "0xa62835d1a6bf5f521c4e2746e1f51c923b8f3483",
      "function": null,
      "arguments": [
        "Quote",
        "QUOTE",
        "0xf39Fd6e51aad88F6F4ce6aB8827279cffFb92266"
      ],
      "transaction": {
        "from": "0xf39fd6e51aad88f6f4ce6ab8827279cfffb92266",
        "gas": "0xc5b0a",
        "value": "0x0",
        "input": "0x608060405234801561001057600080fd5b50604051610c3f380380610c3f83398101604081905261002f91610199565b808383600361003e83826102ad565b50600461004b82826102ad565b5050506001600160a01b03811661007c57604051631e4fbdf760e01b81526000600482015260240160405180910390fd5b6100858161008e565b5050505061036b565b600580546001600160a01b038381166001600160a01b0319831681179093556040519116919082907f8be0079c531659141344cd1fd0a4f28419497f9722a3daafe3b4186f6b6457e090600090a35050565b634e487b7160e01b600052604160045260246000fd5b600082601f83011261010757600080fd5b81516001600160401b03811115610120576101206100e0565b604051601f8201601f19908116603f011681016001600160401b038111828210171561014e5761014e6100e0565b60405281815283820160200185101561016657600080fd5b60005b8281101561018557602081860181015183830182015201610169565b506000918101602001919091529392505050565b6000806000606084860312156101ae57600080fd5b83516001600160401b038111156101c457600080fd5b6101d0868287016100f6565b602086015190945090506001600160401b038111156101ee57600080fd5b6101fa868287016100f6565b604086015190935090506001600160a01b038116811461021957600080fd5b809150509250925092565b600181811c9082168061023857607f821691505b60208210810361025857634e487b7160e01b600052602260045260246000fd5b50919050565b601f8211156102a857806000526020600020601f840160051c810160208510156102855750805b601f840160051c820191505b818110156102a55760008155600101610291565b50505b505050565b81516001600160401b038111156102c6576102c66100e0565b6102da816102d48454610224565b8461025e565b6020601f82116001811461030e57600083156102f65750848201515b600019600385901b1c1916600184901b1784556102a5565b600084815260208120601f198516915b8281101561033e578785015182556020948501946001909201910161031e565b508482101561035c5786840151600019600387901b60f8161c191681555b50505050600190811b01905550565b6108c58061037a6000396000f3fe608060405234801561001057600080fd5b50600436106100cf5760003560e01c806370a082311161008c57806395d89b411161006657806395d89b41146101aa578063a9059cbb146101b2578063dd62ed3e146101c5578063f2fde38b146101fe57600080fd5b806370a082311461015e578063715018a6146101875780638da5cb5b1461018f57600080fd5b806306fdde03146100d4578063095ea7b3146100f257806318160ddd1461011557806323b872dd14610127578063313ce5671461013a57806340c10f1914610149575b600080fd5b6100dc610211565b6040516100e9919061070e565b60405180910390f35b610105610100366004610778565b6102a3565b60405190151581526020016100e9565b6002545b6040519081526020016100e9565b6101056101353660046107a2565b6102bd565b604051601281526020016100e9565b61015c610157366004610778565b6102e1565b005b61011961016c3660046107df565b6001600160a01b031660009081526020819052604090205490565b61015c6102f7565b6005546040516001600160a01b0390911681526020016100e9565b6100dc61030b565b6101056101c0366004610778565b61031a565b6101196101d3366004610801565b6001600160a01b03918216600090815260016020908152604080832093909416825291909152205490565b61015c61020c3660046107df565b610328565b60606003805461022090610834565b80601f016020809104026020016040519081016040528092919081815260200182805461024c90610834565b80156102995780601f1061026e57610100808354040283529160200191610299565b820191906000526020600020905b81548152906001019060200180831161027c57829003601f168201915b5050505050905090565b6000336102b181858561036b565b60019150505b92915050565b6000336102cb85828561037d565b6102d68585856103fb565b506001949350505050565b6102e961045a565b6102f38282610487565b5050565b6102ff61045a565b61030960006104bd565b565b60606004805461022090610834565b6000336102b18185856103fb565b61033061045a565b6001600160a01b03811661035f57604051631e4fbdf760e01b8152600060048201526024015b60405180910390fd5b610368816104bd565b50565b610378838383600161050f565b505050565b6001600160a01b0383811660009081526001602090815260408083209386168352929052205460001981146103f557818110156103e657604051637dc7a0d960e11b81526001600160a01b03841660048201526024810182905260448101839052606401610356565b6103f58484848403600061050f565b50505050565b6001600160a01b03831661042557604051634b637e8f60e11b815260006004820152602401610356565b6001600160a01b03821661044f5760405163ec442f0560e01b815260006004820152602401610356565b6103788383836105e4565b6005546001600160a01b031633146103095760405163118cdaa760e01b8152336004820152602401610356565b6001600160a01b0382166104b15760405163ec442f0560e01b815260006004820152602401610356565b6102f3600083836105e4565b600580546001600160a01b038381166001600160a01b0319831681179093556040519116919082907f8be0079c531659141344cd1fd0a4f28419497f9722a3daafe3b4186f6b6457e090600090a35050565b6001600160a01b0384166105395760405163e602df0560e01b815260006004820152602401610356565b6001600160a01b03831661056357604051634a1406b160e11b815260006004820152602401610356565b6001600160a01b03808516600090815260016020908152604080832093871683529290522082905580156103f557826001600160a01b0316846001600160a01b03167f8c5be1e5ebec7d5bd14f71427d1e84f3dd0314c0f7b2291e5b200ac8c7c3b925846040516105d691815260200190565b60405180910390a350505050565b6001600160a01b03831661060f578060026000828254610604919061086e565b909155506106819050565b6001600160a01b038316600090815260208190526040902054818110156106625760405163391434e360e21b81526001600160a01b03851660048201526024810182905260448101839052606401610356565b6001600160a01b03841660009081526020819052604090209082900390555b6001600160a01b03821661069d576002805482900390556106bc565b6001600160a01b03821660009081526020819052604090208054820190555b816001600160a01b0316836001600160a01b03167fddf252ad1be2c89b69c2b068fc378daa952ba7f163c4a11628f55a4df523b3ef8360405161070191815260200190565b60405180910390a3505050565b602081526000825180602084015260005b8181101561073c576020818601810151604086840101520161071f565b506000604082850101526040601f19601f83011684010191505092915050565b80356001600160a01b038116811461077357600080fd5b919050565b6000806040838503121561078b57600080fd5b6107948361075c565b946020939093013593505050565b6000806000606084860312156107b757600080fd5b6107c08461075c565b92506107ce6020850161075c565b929592945050506040919091013590565b6000602082840312156107f157600080fd5b6107fa8261075c565b9392505050565b6000806040838503121561081457600080fd5b61081d8361075c565b915061082b6020840161075c565b90509250929050565b600181811c9082168061084857607f821691505b60208210810361086857634e487b7160e01b600052602260045260246000fd5b50919050565b808201808211156102b757634e487b7160e01b600052601160045260246000fdfea2646970667358221220e96b9e23415b987561d332521b087a3f5c2eb6e62ecd0f97c614690c34b6a86b64736f6c634300081c0033000000000000000000000000000000000000000000000000000000000000006000000000000000000000000000000000000000000000000000000000000000a0000000000000000000000000f39fd6e51aad88f6f4ce6ab8827279cfffb92266000000000000000000000000000000000000000000000000000000000000000551756f7465000000000000000000000000000000000000000000000000000000000000000000000000000000000000000000000000000000000000000000000551554f5445000000000000000000000000000000000000000000000000000000",
        "nonce": "0x13d",
        "chainId": "0x507"
      },
      "additionalContracts": [],
      "isFixedGasLimit": false
    },
    {
      "hash": "0x12a1eaae43a01f5e0208694b79814eceed88b04959e249c35ee8322f4f6d5bdb",
      "transactionType": "CALL",
      "contractName": "MyERC20Mock",
      "contractAddress": "0x627b9a657eac8c3463ad17009a424dfe3fdbd0b1",
      "function": "mint(address,uint256)",
      "arguments": [
        "0xf39Fd6e51aad88F6F4ce6aB8827279cffFb92266",
        "1000000000000000000000000"
      ],
      "transaction": {
        "from": "0xf39fd6e51aad88f6f4ce6ab8827279cfffb92266",
        "to": "0x627b9a657eac8c3463ad17009a424dfe3fdbd0b1",
        "gas": "0x6de9",
        "value": "0x0",
        "input": "0x40c10f19000000000000000000000000f39fd6e51aad88f6f4ce6ab8827279cfffb9226600000000000000000000000000000000000000000000d3c21bcecceda1000000",
        "nonce": "0x13e",
        "chainId": "0x507"
      },
      "additionalContracts": [],
      "isFixedGasLimit": false
    },
    {
      "hash": "0x8ac5a6583497221b8d9a4c8eb8d4a6539b695000e08bbb127c8d45044d37f532",
      "transactionType": "CALL",
      "contractName": "MyERC20Mock",
      "contractAddress": "0xa62835d1a6bf5f521c4e2746e1f51c923b8f3483",
      "function": "mint(address,uint256)",
      "arguments": [
        "0xf39Fd6e51aad88F6F4ce6aB8827279cffFb92266",
        "1000000000000000000000000"
      ],
      "transaction": {
        "from": "0xf39fd6e51aad88f6f4ce6ab8827279cfffb92266",
        "to": "0xa62835d1a6bf5f521c4e2746e1f51c923b8f3483",
        "gas": "0x6de9",
        "value": "0x0",
        "input": "0x40c10f19000000000000000000000000f39fd6e51aad88f6f4ce6ab8827279cfffb9226600000000000000000000000000000000000000000000d3c21bcecceda1000000",
        "nonce": "0x13f",
        "chainId": "0x507"
      },
      "additionalContracts": [],
      "isFixedGasLimit": false
    },
    {
      "hash": "0x96a7207833381bbee79bc15532614494d4224e70441e235bd0d9b51b9d41e966",
      "transactionType": "CREATE",
      "contractName": "NoSandwichSwapPair",
      "contractAddress": "0xc32609c91d6b6b51d48f2611308fef121b02041f",
      "function": null,
      "arguments": [
        "0x627b9A657eac8c3463AD17009a424dFE3FDbd0b1",
        "0xa62835D1A6bf5f521C4e2746E1F51c923b8f3483",
        "10",
        "10"
      ],
      "transaction": {
        "from": "0xf39fd6e51aad88f6f4ce6ab8827279cfffb92266",
        "gas": "0x3031f5",
        "value": "0x0",
        "input": "0x61014060405234801561001157600080fd5b50604051612c80380380612c8083398101604081905261003091610117565b600160009081556001600160a01b03808616608081905290851660a081905260c09190915260e052610100839052610120829052600981905560035560405130906201518090683635c9adc5dea000009061008a906100ee565b6001600160a01b03909316835260208301919091526040820152606001604051809103906000f0801580156100c3573d6000803e3d6000fd5b50600a80546001600160a01b0319166001600160a01b03929092169190911790555061015a92505050565b610c8580611ffb83390190565b80516001600160a01b038116811461011257600080fd5b919050565b6000806000806080858703121561012d57600080fd5b610136856100fb565b9350610144602086016100fb565b6040860151606090960151949790965092505050565b60805160a05160c05160e0516101005161012051611db8610243600039600081816101d4015281816110da01528181611104015261114601526000818161036501528181610e190152610f7c0152600081816102fb015281816106910152818161087d01528181610cbc015281816112ca0152818161177001528181611801015261196101526000818161038b015281816105dd015281816107c701528181610b820152818161149a0152818161160b0152818161169c01526118d60152600081816102230152610abb01526000818161026c01528181610a7e0152610b310152611db86000f3fe608060405234801561001057600080fd5b50600436106101735760003560e01c80639cd441da116100de578063d150ef2a11610097578063e367bf7711610071578063e367bf7714610363578063ea40e35d14610389578063ecea3035146103af578063fed839e0146103c257600080fd5b8063d150ef2a14610328578063db207aa51461033b578063dd2964801461034357600080fd5b80639cd441da146102c0578063a2795a07146102d3578063a9009f06146102e8578063b3e6039e146102f0578063c89ff126146102f9578063ca48bbd21461031f57600080fd5b80634ca43468116101305780634ca434681461024757806378071d2b1461025a578063798b03ad1461026257806386415be41461026a57806398d5fdca146102905780639c8f9f231461029857600080fd5b8063134b9dd4146101785780631a686502146101a85780631cf63244146101bf57806331caee0a146101d25780633ca65a02146101f8578063439bec7014610221575b600080fd5b600a5461018b906001600160a01b031681565b6040516001600160a01b0390911681526020015b60405180910390f35b6101b160035481565b60405190815260200161019f565b61018b6101cd366004611be1565b6103eb565b7f00000000000000000000000000000000000000000000000000000000000000006101b1565b6101b1610206366004611c11565b6001600160a01b031660009081526006602052604090205490565b7f000000000000000000000000000000000000000000000000000000000000000061018b565b61018b610255366004611be1565b610468565b6009546101b1565b6005546101b1565b7f000000000000000000000000000000000000000000000000000000000000000061018b565b6101b1610492565b6102ab6102a6366004611be1565b6104bc565b6040805192835260208301919091520161019f565b6101b16102ce366004611c33565b61077a565b6102e66102e1366004611c55565b610a65565b005b6007546101b1565b6101b160025481565b7f000000000000000000000000000000000000000000000000000000000000000061018b565b6101b160015481565b61018b610336366004611be1565b610e61565b6101b1610e71565b6101b1610351366004611c11565b60046020526000908152604090205481565b7f00000000000000000000000000000000000000000000000000000000000000006101b1565b7f000000000000000000000000000000000000000000000000000000000000000061018b565b61018b6103bd366004611be1565b610e83565b6101b16103d0366004611c11565b6001600160a01b031660009081526008602052604090205490565b600554600090821061043a5760405162461bcd60e51b8152602060048201526013602482015272496e646578206f7574206f6620626f756e647360681b60448201526064015b60405180910390fd5b6005828154811061044d5761044d611c7f565b6000918252602090912001546001600160a01b031692915050565b6007818154811061047857600080fd5b6000918252602090912001546001600160a01b0316905081565b6000600154600254670de0b6b3a76400006104ad9190611cab565b6104b79190611cc2565b905090565b6000806104c7610ee0565b826000036104e857604051632793d17960e21b815260040160405180910390fd5b3360009081526004602052604090205483111561051857604051634c73c89b60e11b815260040160405180910390fd5b6003546001546105289085611cab565b6105329190611cc2565b9150600354600254846105459190611cab565b61054f9190611cc2565b905082600360008282546105639190611ce4565b90915550503360009081526004602052604081208054859290610587908490611ce4565b9250508190555081600160008282546105a09190611ce4565b9250508190555080600260008282546105b99190611ce4565b909155505060405163a9059cbb60e01b8152336004820152602481018390526000907f00000000000000000000000000000000000000000000000000000000000000006001600160a01b03169063a9059cbb906044016020604051808303816000875af115801561062e573d6000803e3d6000fd5b505050506040513d601f19601f820116820180604052508101906106529190611cf7565b90508061067257604051630a9a15af60e01b815260040160405180910390fd5b60405163a9059cbb60e01b8152336004820152602481018390526000907f00000000000000000000000000000000000000000000000000000000000000006001600160a01b03169063a9059cbb906044016020604051808303816000875af11580156106e2573d6000803e3d6000fd5b505050506040513d601f19601f820116820180604052508101906107069190611cf7565b90508061072657604051636e0ead9960e11b815260040160405180910390fd5b604080518581526020810185905290810186905233907f1dc8bb69df2b8e91fbdcbfcf93d951b3f0000f085a95fe3f7946d6161439245d9060600160405180910390a250506107756001600055565b915091565b6000610784610ee0565b82158061078f575081155b156107ad5760405163aacb28d360e01b815260040160405180910390fd5b6040516323b872dd60e01b81526000906001600160a01b037f000000000000000000000000000000000000000000000000000000000000000016906323b872dd9061080090339030908990600401611d19565b6020604051808303816000875af115801561081f573d6000803e3d6000fd5b505050506040513d601f19601f820116820180604052508101906108439190611cf7565b90508061086357604051630a9a15af60e01b815260040160405180910390fd5b6040516323b872dd60e01b81526000906001600160a01b037f000000000000000000000000000000000000000000000000000000000000000016906323b872dd906108b690339030908990600401611d19565b6020604051808303816000875af11580156108d5573d6000803e3d6000fd5b505050506040513d601f19601f820116820180604052508101906108f99190611cf7565b90508061091957604051636e0ead9960e11b815260040160405180910390fd5b600354600003610953576109356109308587611cab565b610f0a565b600381905533600090815260046020526040902081905592506109e0565b6000600154600354876109669190611cab565b6109709190611cc2565b90506000600254600354876109859190611cab565b61098f9190611cc2565b905080821061099e57806109a0565b815b945084600360008282546109b49190611d3d565b909155505033600090815260046020526040812080548792906109d8908490611d3d565b909155505050505b84600160008282546109f29190611d3d565b925050819055508360026000828254610a0b9190611d3d565b9091555050604080518681526020810186905290810184905233907f64b83944e79c3ce8d4c297411de637c3e102d064677aac0c163976ebdcd6f50e9060600160405180910390a25050610a5f6001600055565b92915050565b610a6d610ee0565b600954600003610a7c57426009555b7f00000000000000000000000000000000000000000000000000000000000000006001600160a01b0316826001600160a01b031614158015610af057507f00000000000000000000000000000000000000000000000000000000000000006001600160a01b0316826001600160a01b031614155b15610b0e5760405163c1ab6dc160e01b815260040160405180910390fd5b80600003610b2f5760405163aacb28d360e01b815260040160405180910390fd5b7f00000000000000000000000000000000000000000000000000000000000000006001600160a01b0316826001600160a01b031603610ca2576040516323b872dd60e01b81526000906001600160a01b037f000000000000000000000000000000000000000000000000000000000000000016906323b872dd90610bbb90339030908790600401611d19565b6020604051808303816000875af1158015610bda573d6000803e3d6000fd5b505050506040513d601f19601f82011682018060405250810190610bfe9190611cf7565b905080610c1e576040516312171d8360e31b815260040160405180910390fd5b336000908152600660205260408120549003610c7757600580546001810182556000919091527f036b6384b5eca791c62761152d0c79bb0604c104a5fb6f4eb0703f3154bb3db00180546001600160a01b031916331790555b3360009081526006602052604081208054849290610c96908490611d3d565b90915550610dd7915050565b6040516323b872dd60e01b81526000906001600160a01b037f000000000000000000000000000000000000000000000000000000000000000016906323b872dd90610cf590339030908790600401611d19565b6020604051808303816000875af1158015610d14573d6000803e3d6000fd5b505050506040513d601f19601f82011682018060405250810190610d389190611cf7565b905080610d58576040516312171d8360e31b815260040160405180910390fd5b336000908152600860205260408120549003610db157600780546001810182556000919091527fa66cc928b5edb82af9bd49922954155ab7b0942694bea4ce44661d9a8736c6880180546001600160a01b031916331790555b3360009081526008602052604081208054849290610dd0908490611d3d565b9091555050505b6040518181526001600160a01b0383169033907ffafc7288e0dac25b894161857c42c45197c5d1dfebaa49b38f8bcd2204d7dcb39060200160405180910390a37f000000000000000000000000000000000000000000000000000000000000000060095442610e469190611ce4565b10610e5357610e53610f7a565b610e5d6001600055565b5050565b6005818154811061047857600080fd5b60006002546001546104b79190611cab565b6007546000908210610ecd5760405162461bcd60e51b8152602060048201526013602482015272496e646578206f7574206f6620626f756e647360681b6044820152606401610431565b6007828154811061044d5761044d611c7f565b600260005403610f0357604051633ee5aeb560e01b815260040160405180910390fd5b6002600055565b60006003821115610f6b5750806000610f24600283611cc2565b610f2f906001611d3d565b90505b81811015610f6557905080600281610f4a8186611cc2565b610f549190611d3d565b610f5e9190611cc2565b9050610f32565b50919050565b8115610f75575060015b919050565b7f000000000000000000000000000000000000000000000000000000000000000060095442610fa99190611ce4565b1015610fc857604051634e0884a360e11b815260040160405180910390fd5b60008060005b600554811015611028576006600060058381548110610fef57610fef611c7f565b60009182526020808320909101546001600160a01b0316835282019290925260400190205461101e9084611d3d565b9250600101610fce565b5060005b60075481101561108657600860006007838154811061104d5761104d611c7f565b60009182526020808320909101546001600160a01b0316835282019290925260400190205461107c9083611d3d565b915060010161102c565b5060006103e86110986103e785611cab565b6110a29190611cc2565b905060006103e86110b56103e785611cab565b6110bf9190611cc2565b6001546002549192509060006110d3610e71565b905060015b7f00000000000000000000000000000000000000000000000000000000000000008111611195576111297f000000000000000000000000000000000000000000000000000000000000000087611cc2565b6111339085611d3d565b935061113f8483611cc2565b925061116b7f000000000000000000000000000000000000000000000000000000000000000086611cc2565b6111759084611d3d565b92506111818383611cc2565b93508061118d81611d50565b9150506110d8565b50866001546111a49190611d3d565b8311156111d957600154604051631b15cb1b60e31b815260048101919091526024810188905260448101849052606401610431565b856002546111e79190611d3d565b82111561121c5760025460405163129b95ad60e01b815260048101919091526024810187905260448101839052606401610431565b6000838860015461122d9190611d3d565b6112379190611ce4565b90506000838860025461124a9190611d3d565b6112549190611ce4565b905060005b6005548110801561126a575060008a115b15611425576000600660006005848154811061128857611288611c7f565b60009182526020808320909101546001600160a01b0316835282019290925260400181205491508b6112ba8386611cab565b6112c49190611cc2565b905060007f00000000000000000000000000000000000000000000000000000000000000006001600160a01b031663a9059cbb6005868154811061130a5761130a611c7f565b60009182526020909120015460405160e083901b6001600160e01b03191681526001600160a01b039091166004820152602481018590526044016020604051808303816000875af1158015611363573d6000803e3d6000fd5b505050506040513d601f19601f820116820180604052508101906113879190611cf7565b9050806113a7576040516312171d8360e31b815260040160405180910390fd5b7fe4f5c2ae9d48b65f58decc2571c721db07b7aff237b6edd7b5b472d1a922e65e600585815481106113db576113db611c7f565b60009182526020918290200154604080516001600160a01b039092168252918101859052428183015290519081900360600190a1505050808061141d90611d50565b915050611259565b5060005b6007548110801561143a5750600089115b156115f5576000600860006007848154811061145857611458611c7f565b60009182526020808320909101546001600160a01b0316835282019290925260400181205491508a61148a8387611cab565b6114949190611cc2565b905060007f00000000000000000000000000000000000000000000000000000000000000006001600160a01b031663a9059cbb600786815481106114da576114da611c7f565b60009182526020909120015460405160e083901b6001600160e01b03191681526001600160a01b039091166004820152602481018590526044016020604051808303816000875af1158015611533573d6000803e3d6000fd5b505050506040513d601f19601f820116820180604052508101906115579190611cf7565b905080611577576040516312171d8360e31b815260040160405180910390fd5b7f3e36f1793603b8c33d1cf4de656de5181c97659c327f4980f41a28b4417a6a5e600785815481106115ab576115ab611c7f565b60009182526020918290200154604080516001600160a01b039092168252918101859052428183015290519081900360600190a150505080806115ed90611d50565b915050611429565b506040516370a0823160e01b81523060048201527f00000000000000000000000000000000000000000000000000000000000000006001600160a01b0316906370a0823190602401602060405180830381865afa15801561165a573d6000803e3d6000fd5b505050506040513d601f19601f8201168201806040525081019061167e9190611d69565b85111561175b576040516370a0823160e01b815230600482015285907f00000000000000000000000000000000000000000000000000000000000000006001600160a01b0316906370a0823190602401602060405180830381865afa1580156116eb573d6000803e3d6000fd5b505050506040513d601f19601f8201168201806040525081019061170f9190611d69565b604051636fdeba3b60e01b815260048101929092526024820152606060448201526013606482015272426173652043757272656e6379204c65616b2160681b608482015260a401610431565b6040516370a0823160e01b81523060048201527f00000000000000000000000000000000000000000000000000000000000000006001600160a01b0316906370a0823190602401602060405180830381865afa1580156117bf573d6000803e3d6000fd5b505050506040513d601f19601f820116820180604052508101906117e39190611d69565b8411156118c1576040516370a0823160e01b815230600482015284907f00000000000000000000000000000000000000000000000000000000000000006001600160a01b0316906370a0823190602401602060405180830381865afa158015611850573d6000803e3d6000fd5b505050506040513d601f19601f820116820180604052508101906118749190611d69565b604051636fdeba3b60e01b81526004810192909252602482015260606044820152601460648201527351756f74652043757272656e6379204c65616b2160601b608482015260a401610431565b6040516370a0823160e01b81523060048201527f00000000000000000000000000000000000000000000000000000000000000006001600160a01b0316906370a0823190602401602060405180830381865afa158015611925573d6000803e3d6000fd5b505050506040513d601f19601f820116820180604052508101906119499190611d69565b6001556040516370a0823160e01b81523060048201527f00000000000000000000000000000000000000000000000000000000000000006001600160a01b0316906370a0823190602401602060405180830381865afa1580156119b0573d6000803e3d6000fd5b505050506040513d601f19601f820116820180604052508101906119d49190611d69565b6002554260095560005b600554811015611a2e5760006006600060058481548110611a0157611a01611c7f565b60009182526020808320909101546001600160a01b031683528201929092526040019020556001016119de565b5060005b600754811015611a825760006008600060078481548110611a5557611a55611c7f565b60009182526020808320909101546001600160a01b03168352820192909252604001902055600101611a32565b506040805160008152602081019182905251611aa091600591611b67565b506040805160008152602081019182905251611abe91600791611b67565b50600a546040516335313c2160e11b81523360048201526001600160a01b0390911690636a62784290602401600060405180830381600087803b158015611b0457600080fd5b505af1158015611b18573d6000803e3d6000fd5b50506040805185815260208101859052428183015290517f3c893dd4bb6a91d0a50e34c95630ac9dbf7594be4909338412fcc34b63e86c7c9350908190036060019150a1505050505050505050565b828054828255906000526020600020908101928215611bbc579160200282015b82811115611bbc57825182546001600160a01b0319166001600160a01b03909116178255602090920191600190910190611b87565b50611bc8929150611bcc565b5090565b5b80821115611bc85760008155600101611bcd565b600060208284031215611bf357600080fd5b5035919050565b80356001600160a01b0381168114610f7557600080fd5b600060208284031215611c2357600080fd5b611c2c82611bfa565b9392505050565b60008060408385031215611c4657600080fd5b50508035926020909101359150565b60008060408385031215611c6857600080fd5b611c7183611bfa565b946020939093013593505050565b634e487b7160e01b600052603260045260246000fd5b634e487b7160e01b600052601160045260246000fd5b8082028115828204841417610a5f57610a5f611c95565b600082611cdf57634e487b7160e01b600052601260045260246000fd5b500490565b81810381811115610a5f57610a5f611c95565b600060208284031215611d0957600080fd5b81518015158114611c2c57600080fd5b6001600160a01b039384168152919092166020820152604081019190915260600190565b80820180821115610a5f57610a5f611c95565b600060018201611d6257611d62611c95565b5060010190565b600060208284031215611d7b57600080fd5b505191905056fea2646970667358221220e111cd765bc9e2e444b3823ee313a6400fd65c4fa26de7d2be8b09a8e672c78564736f6c634300081c003360c060405234801561001057600080fd5b50604051610c85380380610c8583398101604081905261002f9161013c565b826040518060400160405280600e81526020016d29b0b7323bb4b1b4102a37b5b2b760911b815250604051806040016040528060088152602001670a6829c88ae9286960c31b8152508160039081610087919061021e565b506004610094828261021e565b5050506001600160a01b0381166100c557604051631e4fbdf760e01b81526000600482015260240160405180910390fd5b6100ce816100ea565b5042608081905260a092909252600691909155600755506102dc565b600580546001600160a01b038381166001600160a01b0319831681179093556040519116919082907f8be0079c531659141344cd1fd0a4f28419497f9722a3daafe3b4186f6b6457e090600090a35050565b60008060006060848603121561015157600080fd5b83516001600160a01b038116811461016857600080fd5b602085015160409095015190969495509392505050565b634e487b7160e01b600052604160045260246000fd5b600181811c908216806101a957607f821691505b6020821081036101c957634e487b7160e01b600052602260045260246000fd5b50919050565b601f82111561021957806000526020600020601f840160051c810160208510156101f65750805b601f840160051c820191505b818110156102165760008155600101610202565b50505b505050565b81516001600160401b038111156102375761023761017f565b61024b816102458454610195565b846101cf565b6020601f82116001811461027f57600083156102675750848201515b600019600385901b1c1916600184901b178455610216565b600084815260208120601f198516915b828110156102af578785015182556020948501946001909201910161028f565b50848210156102cd5786840151600019600387901b60f8161c191681555b50505050600190811b01905550565b60805160a0516109876102fe60003960006103230152600050506109876000f3fe608060405234801561001057600080fd5b50600436106100f55760003560e01c806370a0823111610097578063a9059cbb11610066578063a9059cbb146101e1578063bd80ee43146101f4578063dd62ed3e146101fd578063f2fde38b1461023657600080fd5b806370a082311461018d578063715018a6146101b65780638da5cb5b146101be57806395d89b41146101d957600080fd5b806323b872dd116100d357806323b872dd1461014d578063313ce567146101605780635a2bcc181461016f5780636a6278421461017857600080fd5b806306fdde03146100fa578063095ea7b31461011857806318160ddd1461013b575b600080fd5b610102610249565b60405161010f9190610793565b60405180910390f35b61012b6101263660046107fd565b6102db565b604051901515815260200161010f565b6002545b60405190815260200161010f565b61012b61015b366004610827565b6102f5565b6040516012815260200161010f565b61013f60075481565b61018b610186366004610864565b610319565b005b61013f61019b366004610864565b6001600160a01b031660009081526020819052604090205490565b61018b61037b565b6005546040516001600160a01b03909116815260200161010f565b61010261038f565b61012b6101ef3660046107fd565b61039e565b61013f60065481565b61013f61020b366004610886565b6001600160a01b03918216600090815260016020908152604080832093909416825291909152205490565b61018b610244366004610864565b6103ac565b606060038054610258906108b9565b80601f0160208091040260200160405190810160405280929190818152602001828054610284906108b9565b80156102d15780601f106102a6576101008083540402835291602001916102d1565b820191906000526020600020905b8154815290600101906020018083116102b457829003601f168201915b5050505050905090565b6000336102e98185856103ec565b60019150505b92915050565b6000336103038582856103fe565b61030e85858561047c565b506001949350505050565b6103216104db565b7f0000000000000000000000000000000000000000000000000000000000000000600654426103509190610909565b1061036c57426006556007546103689060029061091c565b6007555b61037881600754610508565b50565b6103836104db565b61038d6000610542565b565b606060048054610258906108b9565b6000336102e981858561047c565b6103b46104db565b6001600160a01b0381166103e357604051631e4fbdf760e01b8152600060048201526024015b60405180910390fd5b61037881610542565b6103f98383836001610594565b505050565b6001600160a01b038381166000908152600160209081526040808320938616835292905220546000198114610476578181101561046757604051637dc7a0d960e11b81526001600160a01b038416600482015260248101829052604481018390526064016103da565b61047684848484036000610594565b50505050565b6001600160a01b0383166104a657604051634b637e8f60e11b8152600060048201526024016103da565b6001600160a01b0382166104d05760405163ec442f0560e01b8152600060048201526024016103da565b6103f9838383610669565b6005546001600160a01b0316331461038d5760405163118cdaa760e01b81523360048201526024016103da565b6001600160a01b0382166105325760405163ec442f0560e01b8152600060048201526024016103da565b61053e60008383610669565b5050565b600580546001600160a01b038381166001600160a01b0319831681179093556040519116919082907f8be0079c531659141344cd1fd0a4f28419497f9722a3daafe3b4186f6b6457e090600090a35050565b6001600160a01b0384166105be5760405163e602df0560e01b8152600060048201526024016103da565b6001600160a01b0383166105e857604051634a1406b160e11b8152600060048201526024016103da565b6001600160a01b038085166000908152600160209081526040808320938716835292905220829055801561047657826001600160a01b0316846001600160a01b03167f8c5be1e5ebec7d5bd14f71427d1e84f3dd0314c0f7b2291e5b200ac8c7c3b9258460405161065b91815260200190565b60405180910390a350505050565b6001600160a01b038316610694578060026000828254610689919061093e565b909155506107069050565b6001600160a01b038316600090815260208190526040902054818110156106e75760405163391434e360e21b81526001600160a01b038516600482015260248101829052604481018390526064016103da565b6001600160a01b03841660009081526020819052604090209082900390555b6001600160a01b03821661072257600280548290039055610741565b6001600160a01b03821660009081526020819052604090208054820190555b816001600160a01b0316836001600160a01b03167fddf252ad1be2c89b69c2b068fc378daa952ba7f163c4a11628f55a4df523b3ef8360405161078691815260200190565b60405180910390a3505050565b602081526000825180602084015260005b818110156107c157602081860181015160408684010152016107a4565b506000604082850101526040601f19601f83011684010191505092915050565b80356001600160a01b03811681146107f857600080fd5b919050565b6000806040838503121561081057600080fd5b610819836107e1565b946020939093013593505050565b60008060006060848603121561083c57600080fd5b610845846107e1565b9250610853602085016107e1565b929592945050506040919091013590565b60006020828403121561087657600080fd5b61087f826107e1565b9392505050565b6000806040838503121561089957600080fd5b6108a2836107e1565b91506108b0602084016107e1565b90509250929050565b600181811c908216806108cd57607f821691505b6020821081036108ed57634e487b7160e01b600052602260045260246000fd5b50919050565b634e487b7160e01b600052601160045260246000fd5b818103818111156102ef576102ef6108f3565b60008261093957634e487b7160e01b600052601260045260246000fd5b500490565b808201808211156102ef576102ef6108f356fea26469706673582212205a36ae73015681f4c0d54658285199435f6337b9b473715a142a06f20ded83ef64736f6c634300081c0033000000000000000000000000627b9a657eac8c3463ad17009a424dfe3fdbd0b1000000000000000000000000a62835d1a6bf5f521c4e2746e1f51c923b8f3483000000000000000000000000000000000000000000000000000000000000000a000000000000000000000000000000000000000000000000000000000000000a",
        "nonce": "0x140",
        "chainId": "0x507"
      },
      "additionalContracts": [],
      "isFixedGasLimit": false
    },
    {
      "hash": "0x78c83b4e197d8b6a1f5fe413a30ea84385738341a6e55d99b1d2d378bf368e04",
      "transactionType": "CALL",
      "contractName": "MyERC20Mock",
      "contractAddress": "0x627b9a657eac8c3463ad17009a424dfe3fdbd0b1",
      "function": "approve(address,uint256)",
      "arguments": [
        "0xC32609C91d6B6b51D48f2611308FEf121B02041f",
        "115792089237316195423570985008687907853269984665640564039457584007913129639935"
      ],
      "transaction": {
        "from": "0xf39fd6e51aad88f6f4ce6ab8827279cfffb92266",
        "to": "0x627b9a657eac8c3463ad17009a424dfe3fdbd0b1",
        "gas": "0x6f6f",
        "value": "0x0",
        "input": "0x095ea7b3000000000000000000000000c32609c91d6b6b51d48f2611308fef121b02041fffffffffffffffffffffffffffffffffffffffffffffffffffffffffffffffff",
        "nonce": "0x141",
        "chainId": "0x507"
      },
      "additionalContracts": [],
      "isFixedGasLimit": false
    },
    {
      "hash": "0x6da6198bd5eed7687a515d6d3082d6c817b8f3c704429b04b8f26bd14ee0cb21",
      "transactionType": "CALL",
      "contractName": "MyERC20Mock",
      "contractAddress": "0xa62835d1a6bf5f521c4e2746e1f51c923b8f3483",
      "function": "approve(address,uint256)",
      "arguments": [
        "0xC32609C91d6B6b51D48f2611308FEf121B02041f",
        "115792089237316195423570985008687907853269984665640564039457584007913129639935"
      ],
      "transaction": {
        "from": "0xf39fd6e51aad88f6f4ce6ab8827279cfffb92266",
        "to": "0xa62835d1a6bf5f521c4e2746e1f51c923b8f3483",
        "gas": "0x6f6f",
        "value": "0x0",
        "input": "0x095ea7b3000000000000000000000000c32609c91d6b6b51d48f2611308fef121b02041fffffffffffffffffffffffffffffffffffffffffffffffffffffffffffffffff",
        "nonce": "0x142",
        "chainId": "0x507"
      },
      "additionalContracts": [],
      "isFixedGasLimit": false
    },
    {
      "hash": "0x41ff7e0820cf2cc2b2271b5ef9344a309acd248e3cf7226b091b6ce215f6e1db",
      "transactionType": "CALL",
      "contractName": "NoSandwichSwapPair",
      "contractAddress": "0xc32609c91d6b6b51d48f2611308fef121b02041f",
      "function": "addLiquidity(uint256,uint256)",
      "arguments": [
        "1000000000000000000000",
        "1000000000000000000000"
      ],
      "transaction": {
        "from": "0xf39fd6e51aad88f6f4ce6ab8827279cfffb92266",
        "to": "0xc32609c91d6b6b51d48f2611308fef121b02041f",
        "gas": "0x6d1e",
        "value": "0x0",
        "input": "0x9cd441da00000000000000000000000000000000000000000000003635c9adc5dea0000000000000000000000000000000000000000000000000003635c9adc5dea00000",
        "nonce": "0x143",
        "chainId": "0x507"
      },
      "additionalContracts": [],
      "isFixedGasLimit": false
    },
    {
      "hash": "0xd2ec08c8efe0e8aabd599ba7f5e65d514f95118676ecdbfd035c9b4b1ecd1460",
      "transactionType": "CALL",
      "contractName": "MyERC20Mock",
      "contractAddress": "0x627b9a657eac8c3463ad17009a424dfe3fdbd0b1",
      "function": "transferOwnership(address)",
      "arguments": [
        "0xf39Fd6e51aad88F6F4ce6aB8827279cffFb92266"
      ],
      "transaction": {
        "from": "0xf39fd6e51aad88f6f4ce6ab8827279cfffb92266",
        "to": "0x627b9a657eac8c3463ad17009a424dfe3fdbd0b1",
        "gas": "0x6cd5",
        "value": "0x0",
        "input": "0xf2fde38b000000000000000000000000f39fd6e51aad88f6f4ce6ab8827279cfffb92266",
        "nonce": "0x144",
        "chainId": "0x507"
      },
      "additionalContracts": [],
      "isFixedGasLimit": false
    },
    {
      "hash": "0x2defa9df99a01737beddbadb39d608c1baa454633cf3b1e2c998e182608fb507",
      "transactionType": "CALL",
      "contractName": "MyERC20Mock",
      "contractAddress": "0xa62835d1a6bf5f521c4e2746e1f51c923b8f3483",
      "function": "transferOwnership(address)",
      "arguments": [
        "0xf39Fd6e51aad88F6F4ce6aB8827279cffFb92266"
      ],
      "transaction": {
        "from": "0xf39fd6e51aad88f6f4ce6ab8827279cfffb92266",
        "to": "0xa62835d1a6bf5f521c4e2746e1f51c923b8f3483",
        "gas": "0x6cd5",
        "value": "0x0",
        "input": "0xf2fde38b000000000000000000000000f39fd6e51aad88f6f4ce6ab8827279cfffb92266",
        "nonce": "0x145",
        "chainId": "0x507"
      },
      "additionalContracts": [],
      "isFixedGasLimit": false
    },
    {
      "hash": "0xeaa0d87dd130b6117d7435a213e08874af1a485129adf1fff687a73f6667f246",
      "transactionType": "CALL",
      "contractName": "MyERC20Mock",
      "contractAddress": "0x627b9a657eac8c3463ad17009a424dfe3fdbd0b1",
      "function": "mint(address,uint256)",
      "arguments": [
        "0xf39Fd6e51aad88F6F4ce6aB8827279cffFb92266",
        "1000000000000000000000"
      ],
      "transaction": {
        "from": "0xf39fd6e51aad88f6f4ce6ab8827279cfffb92266",
        "to": "0x627b9a657eac8c3463ad17009a424dfe3fdbd0b1",
        "gas": "0x6de9",
        "value": "0x0",
        "input": "0x40c10f19000000000000000000000000f39fd6e51aad88f6f4ce6ab8827279cfffb9226600000000000000000000000000000000000000000000003635c9adc5dea00000",
        "nonce": "0x146",
        "chainId": "0x507"
      },
      "additionalContracts": [],
      "isFixedGasLimit": false
    },
    {
      "hash": "0x09c44b424eee61d7227aa8bfffc628851f478dd389ae2b7c9ba0296943c1f92f",
      "transactionType": "CALL",
      "contractName": "MyERC20Mock",
      "contractAddress": "0xa62835d1a6bf5f521c4e2746e1f51c923b8f3483",
      "function": "mint(address,uint256)",
      "arguments": [
        "0xf39Fd6e51aad88F6F4ce6aB8827279cffFb92266",
        "1000000000000000000000"
      ],
      "transaction": {
        "from": "0xf39fd6e51aad88f6f4ce6ab8827279cfffb92266",
        "to": "0xa62835d1a6bf5f521c4e2746e1f51c923b8f3483",
        "gas": "0x6de9",
        "value": "0x0",
        "input": "0x40c10f19000000000000000000000000f39fd6e51aad88f6f4ce6ab8827279cfffb9226600000000000000000000000000000000000000000000003635c9adc5dea00000",
        "nonce": "0x147",
        "chainId": "0x507"
      },
      "additionalContracts": [],
      "isFixedGasLimit": false
    }
  ],
  "receipts": [
    {
      "status": "0x1",
      "cumulativeGasUsed": "0x98104",
      "logs": [
        {
          "address": "0x627b9a657eac8c3463ad17009a424dfe3fdbd0b1",
          "topics": [
            "0x8be0079c531659141344cd1fd0a4f28419497f9722a3daafe3b4186f6b6457e0",
            "0x0000000000000000000000000000000000000000000000000000000000000000",
            "0x000000000000000000000000f39fd6e51aad88f6f4ce6ab8827279cfffb92266"
          ],
          "data": "0x",
          "blockHash": "0x095fab2d97ba4b9863f0097646d1496a960e93897d269b08bb4ad6f4fcdab450",
          "blockNumber": "0x8ae720",
          "blockTimestamp": "0x6713d054",
          "transactionHash": "0xc3c8f63b7ce3a17f228afca6db041b622f0095f9ef347baabbc121769b4b9be6",
          "transactionIndex": "0x0",
          "logIndex": "0x0",
          "removed": false
        }
      ],
      "logsBloom": "0x00000000000000000000000000000000000000000000000000800000000000000000000000000000000000000000000000000000000000000000000000000000000000000000000000000000000000000001000000000000000000000000000000000000020000000000000100000800000000000000000000000000000000400000000000000000000000000000000000000000000000000000000100000000000000000000000000000000000000000000000000000000000000000000004000000000000010200000000000000000000000002000000000000000000020000000000000000000000000000000000000000000000000000000000000000000",
      "type": "0x2",
      "transactionHash": "0xc3c8f63b7ce3a17f228afca6db041b622f0095f9ef347baabbc121769b4b9be6",
      "transactionIndex": "0x0",
      "blockHash": "0x095fab2d97ba4b9863f0097646d1496a960e93897d269b08bb4ad6f4fcdab450",
      "blockNumber": "0x8ae720",
      "gasUsed": "0x98104",
      "effectiveGasPrice": "0x18fa",
      "blobGasPrice": "0x1",
      "from": "0xf39fd6e51aad88f6f4ce6ab8827279cfffb92266",
      "to": null,
      "contractAddress": "0x627b9a657eac8c3463ad17009a424dfe3fdbd0b1"
    },
    {
      "status": "0x1",
      "cumulativeGasUsed": "0x9811c",
      "logs": [
        {
          "address": "0xa62835d1a6bf5f521c4e2746e1f51c923b8f3483",
          "topics": [
            "0x8be0079c531659141344cd1fd0a4f28419497f9722a3daafe3b4186f6b6457e0",
            "0x0000000000000000000000000000000000000000000000000000000000000000",
            "0x000000000000000000000000f39fd6e51aad88f6f4ce6ab8827279cfffb92266"
          ],
          "data": "0x",
          "blockHash": "0x2b1a076d2096261d80d711e9b16cb2acccaed5f70b0453ad45f9c72cceb99777",
          "blockNumber": "0x8ae721",
          "blockTimestamp": "0x6713d059",
          "transactionHash": "0x8c1fda7ce4235a345ed319c3c5dd74c1458ab89a65c33bcd714cb22bdf6d1629",
          "transactionIndex": "0x0",
          "logIndex": "0x0",
          "removed": false
        }
      ],
      "logsBloom": "0x00000020000000000000000000000000000000000000000000800000000000000000000000000001000000000000000000000000000000000000000000000000000000000000000000000000000000000001000000000000000000000000000000000000020000000000000100000800000000000000000000000000000000400000000000000000000000000000000000000000000000000000000000000004000000000000000000000000000000000000000000000000000000000000000000000000000000200000000000000000000000002000000000000000000020000000000000000000000000000000000000000000000000000000000000000000",
      "type": "0x2",
      "transactionHash": "0x8c1fda7ce4235a345ed319c3c5dd74c1458ab89a65c33bcd714cb22bdf6d1629",
      "transactionIndex": "0x0",
      "blockHash": "0x2b1a076d2096261d80d711e9b16cb2acccaed5f70b0453ad45f9c72cceb99777",
      "blockNumber": "0x8ae721",
      "gasUsed": "0x9811c",
      "effectiveGasPrice": "0x15ec",
      "blobGasPrice": "0x1",
      "from": "0xf39fd6e51aad88f6f4ce6ab8827279cfffb92266",
      "to": null,
      "contractAddress": "0xa62835d1a6bf5f521c4e2746e1f51c923b8f3483"
    },
    {
      "status": "0x1",
      "cumulativeGasUsed": "0x11434",
      "logs": [
        {
          "address": "0x627b9a657eac8c3463ad17009a424dfe3fdbd0b1",
          "topics": [
            "0xddf252ad1be2c89b69c2b068fc378daa952ba7f163c4a11628f55a4df523b3ef",
            "0x0000000000000000000000000000000000000000000000000000000000000000",
            "0x000000000000000000000000f39fd6e51aad88f6f4ce6ab8827279cfffb92266"
          ],
          "data": "0x00000000000000000000000000000000000000000000d3c21bcecceda1000000",
          "blockHash": "0x82f7b4b071e2c824213bdebc624580ca9f5e99a4b111b58df7984dbccf8f23f6",
          "blockNumber": "0x8ae722",
          "blockTimestamp": "0x6713d05e",
          "transactionHash": "0x12a1eaae43a01f5e0208694b79814eceed88b04959e249c35ee8322f4f6d5bdb",
          "transactionIndex": "0x0",
          "logIndex": "0x0",
          "removed": false
        }
      ],
      "logsBloom": "0x00000000000000000000000000000000000000000000000000000000000000000000000000000000000000000000000000000000000000000000000000000000000000000000000000000008000000000000000000000000000000000000000000000000020000000000000100000800000000000000000000000010000000000000000000000000000000000000000000000000000000000000000100000000000000000000000000000000000000000000000000000000000000000000004000000002000010200000000000000000000000002000000000000000000020000000000000000000000000000000000000000000000000000000000000000000",
      "type": "0x2",
      "transactionHash": "0x12a1eaae43a01f5e0208694b79814eceed88b04959e249c35ee8322f4f6d5bdb",
      "transactionIndex": "0x0",
      "blockHash": "0x82f7b4b071e2c824213bdebc624580ca9f5e99a4b111b58df7984dbccf8f23f6",
      "blockNumber": "0x8ae722",
      "gasUsed": "0x11434",
      "effectiveGasPrice": "0x133e",
      "blobGasPrice": "0x1",
      "from": "0xf39fd6e51aad88f6f4ce6ab8827279cfffb92266",
      "to": "0x627b9a657eac8c3463ad17009a424dfe3fdbd0b1",
      "contractAddress": null
    },
    {
      "status": "0x1",
      "cumulativeGasUsed": "0x11434",
      "logs": [
        {
          "address": "0xa62835d1a6bf5f521c4e2746e1f51c923b8f3483",
          "topics": [
            "0xddf252ad1be2c89b69c2b068fc378daa952ba7f163c4a11628f55a4df523b3ef",
            "0x0000000000000000000000000000000000000000000000000000000000000000",
            "0x000000000000000000000000f39fd6e51aad88f6f4ce6ab8827279cfffb92266"
          ],
          "data": "0x00000000000000000000000000000000000000000000d3c21bcecceda1000000",
          "blockHash": "0x8ea552f52d2df2dfe3fa9fe650b5c5f792b08204d85cbe63970ecad23f4bf647",
          "blockNumber": "0x8ae723",
          "blockTimestamp": "0x6713d063",
          "transactionHash": "0x8ac5a6583497221b8d9a4c8eb8d4a6539b695000e08bbb127c8d45044d37f532",
          "transactionIndex": "0x0",
          "logIndex": "0x0",
          "removed": false
        }
      ],
      "logsBloom": "0x00000020000000000000000000000000000000000000000000000000000000000000000000000001000000000000000000000000000000000000000000000000000000000000000000000008000000000000000000000000000000000000000000000000020000000000000100000800000000000000000000000010000000000000000000000000000000000000000000000000000000000000000000000004000000000000000000000000000000000000000000000000000000000000000000000002000000200000000000000000000000002000000000000000000020000000000000000000000000000000000000000000000000000000000000000000",
      "type": "0x2",
      "transactionHash": "0x8ac5a6583497221b8d9a4c8eb8d4a6539b695000e08bbb127c8d45044d37f532",
      "transactionIndex": "0x0",
      "blockHash": "0x8ea552f52d2df2dfe3fa9fe650b5c5f792b08204d85cbe63970ecad23f4bf647",
      "blockNumber": "0x8ae723",
      "gasUsed": "0x11434",
      "effectiveGasPrice": "0x10d8",
      "blobGasPrice": "0x1",
      "from": "0xf39fd6e51aad88f6f4ce6ab8827279cfffb92266",
      "to": "0xa62835d1a6bf5f521c4e2746e1f51c923b8f3483",
      "contractAddress": null
    },
    {
      "status": "0x1",
      "cumulativeGasUsed": "0x2512bd",
      "logs": [
        {
          "address": "0x198ccf5fb307a85716e657bb34c73badd364d747",
          "topics": [
            "0x8be0079c531659141344cd1fd0a4f28419497f9722a3daafe3b4186f6b6457e0",
            "0x0000000000000000000000000000000000000000000000000000000000000000",
            "0x000000000000000000000000c32609c91d6b6b51d48f2611308fef121b02041f"
          ],
          "data": "0x",
          "blockHash": "0xa45935e621eb19fbd37eefa14437512a64bd1de50078577add787e97e963d5a0",
          "blockNumber": "0x8ae724",
          "blockTimestamp": "0x6713d068",
          "transactionHash": "0x96a7207833381bbee79bc15532614494d4224e70441e235bd0d9b51b9d41e966",
          "transactionIndex": "0x0",
          "logIndex": "0x0",
          "removed": false
        }
      ],
      "logsBloom": "0x00000000000000010000000000000000000000000000000000800000000000000000000000000000000000000000000000000000000000000000000000000000000000000000000000000000000000000001000000000000000000000000000000000000020000000000000000000800000000000000000000000000000000400000000000000000000000000000000000000000000000000000000000000000000000000000000000000000000000000000000000000000000000000000000000000000000000000000000000000000080000000000000000000000000028000000000010000000000000000010000000000008000000000000000000000000",
      "type": "0x2",
      "transactionHash": "0x96a7207833381bbee79bc15532614494d4224e70441e235bd0d9b51b9d41e966",
      "transactionIndex": "0x0",
      "blockHash": "0xa45935e621eb19fbd37eefa14437512a64bd1de50078577add787e97e963d5a0",
      "blockNumber": "0x8ae724",
      "gasUsed": "0x2512bd",
      "effectiveGasPrice": "0xebf",
      "blobGasPrice": "0x1",
      "from": "0xf39fd6e51aad88f6f4ce6ab8827279cfffb92266",
      "to": null,
      "contractAddress": "0xc32609c91d6b6b51d48f2611308fef121b02041f"
    },
    {
      "status": "0x1",
      "cumulativeGasUsed": "0xb65b",
      "logs": [
        {
          "address": "0x627b9a657eac8c3463ad17009a424dfe3fdbd0b1",
          "topics": [
            "0x8c5be1e5ebec7d5bd14f71427d1e84f3dd0314c0f7b2291e5b200ac8c7c3b925",
            "0x000000000000000000000000f39fd6e51aad88f6f4ce6ab8827279cfffb92266",
            "0x000000000000000000000000c32609c91d6b6b51d48f2611308fef121b02041f"
          ],
          "data": "0xffffffffffffffffffffffffffffffffffffffffffffffffffffffffffffffff",
          "blockHash": "0x31fda5e068f9382ea610643130bf11fed4ff37966a952240235ad29ecd202d15",
          "blockNumber": "0x8ae725",
          "blockTimestamp": "0x6713d06d",
          "transactionHash": "0x78c83b4e197d8b6a1f5fe413a30ea84385738341a6e55d99b1d2d378bf368e04",
          "transactionIndex": "0x0",
          "logIndex": "0x0",
          "removed": false
        }
      ],
      "logsBloom": "0x00000000000000000000000000000000000000000000000000000000000000000000000000000000000000000000000000000000000000000000000000200000000000000000000000000000000000000000000000000000000000000000000000000000000000000000000100000000000000000000000000000000000000000000000000000000000000000000000000000000000000000000000100000000020000000000000000000000000000000000000000000000000000000000004000000000000010200000000000000000080000002000000000000000000008000010000000000000000000000010000000000000000000000000000000000000",
      "type": "0x2",
      "transactionHash": "0x78c83b4e197d8b6a1f5fe413a30ea84385738341a6e55d99b1d2d378bf368e04",
      "transactionIndex": "0x0",
      "blockHash": "0x31fda5e068f9382ea610643130bf11fed4ff37966a952240235ad29ecd202d15",
      "blockNumber": "0x8ae725",
      "gasUsed": "0xb65b",
      "effectiveGasPrice": "0xd0e",
      "blobGasPrice": "0x1",
      "from": "0xf39fd6e51aad88f6f4ce6ab8827279cfffb92266",
      "to": "0x627b9a657eac8c3463ad17009a424dfe3fdbd0b1",
      "contractAddress": null
    },
    {
      "status": "0x1",
      "cumulativeGasUsed": "0xb65b",
      "logs": [
        {
          "address": "0xa62835d1a6bf5f521c4e2746e1f51c923b8f3483",
          "topics": [
            "0x8c5be1e5ebec7d5bd14f71427d1e84f3dd0314c0f7b2291e5b200ac8c7c3b925",
            "0x000000000000000000000000f39fd6e51aad88f6f4ce6ab8827279cfffb92266",
            "0x000000000000000000000000c32609c91d6b6b51d48f2611308fef121b02041f"
          ],
          "data": "0xffffffffffffffffffffffffffffffffffffffffffffffffffffffffffffffff",
          "blockHash": "0x9092a0e5bea003faab04bcec22417f61dc50d7626d87350da884659f855287c5",
          "blockNumber": "0x8ae726",
          "blockTimestamp": "0x6713d072",
          "transactionHash": "0x6da6198bd5eed7687a515d6d3082d6c817b8f3c704429b04b8f26bd14ee0cb21",
          "transactionIndex": "0x0",
          "logIndex": "0x0",
          "removed": false
        }
      ],
      "logsBloom": "0x00000020000000000000000000000000000000000000000000000000000000000000000000000001000000000000000000000000000000000000000000200000000000000000000000000000000000000000000000000000000000000000000000000000000000000000000100000000000000000000000000000000000000000000000000000000000000000000000000000000000000000000000000000004020000000000000000000000000000000000000000000000000000000000000000000000000000200000000000000000080000002000000000000000000008000010000000000000000000000010000000000000000000000000000000000000",
      "type": "0x2",
      "transactionHash": "0x6da6198bd5eed7687a515d6d3082d6c817b8f3c704429b04b8f26bd14ee0cb21",
      "transactionIndex": "0x0",
      "blockHash": "0x9092a0e5bea003faab04bcec22417f61dc50d7626d87350da884659f855287c5",
      "blockNumber": "0x8ae726",
      "gasUsed": "0xb65b",
      "effectiveGasPrice": "0xb6e",
      "blobGasPrice": "0x1",
      "from": "0xf39fd6e51aad88f6f4ce6ab8827279cfffb92266",
      "to": "0xa62835d1a6bf5f521c4e2746e1f51c923b8f3483",
      "contractAddress": null
    },
    {
      "status": "0x1",
      "cumulativeGasUsed": "0x320fb",
      "logs": [
        {
          "address": "0x627b9a657eac8c3463ad17009a424dfe3fdbd0b1",
          "topics": [
            "0xddf252ad1be2c89b69c2b068fc378daa952ba7f163c4a11628f55a4df523b3ef",
            "0x000000000000000000000000f39fd6e51aad88f6f4ce6ab8827279cfffb92266",
            "0x000000000000000000000000c32609c91d6b6b51d48f2611308fef121b02041f"
          ],
          "data": "0x00000000000000000000000000000000000000000000003635c9adc5dea00000",
          "blockHash": "0x48cd6dc1ac39d02ff2e7e8d8bfeb940a9cfd4a8578943ae10aa3469393e34175",
          "blockNumber": "0x8ae727",
          "blockTimestamp": "0x6713d077",
          "transactionHash": "0x41ff7e0820cf2cc2b2271b5ef9344a309acd248e3cf7226b091b6ce215f6e1db",
          "transactionIndex": "0x0",
          "logIndex": "0x0",
          "removed": false
        },
        {
          "address": "0xa62835d1a6bf5f521c4e2746e1f51c923b8f3483",
          "topics": [
            "0xddf252ad1be2c89b69c2b068fc378daa952ba7f163c4a11628f55a4df523b3ef",
            "0x000000000000000000000000f39fd6e51aad88f6f4ce6ab8827279cfffb92266",
            "0x000000000000000000000000c32609c91d6b6b51d48f2611308fef121b02041f"
          ],
          "data": "0x00000000000000000000000000000000000000000000003635c9adc5dea00000",
          "blockHash": "0x48cd6dc1ac39d02ff2e7e8d8bfeb940a9cfd4a8578943ae10aa3469393e34175",
          "blockNumber": "0x8ae727",
          "blockTimestamp": "0x6713d077",
          "transactionHash": "0x41ff7e0820cf2cc2b2271b5ef9344a309acd248e3cf7226b091b6ce215f6e1db",
          "transactionIndex": "0x0",
          "logIndex": "0x1",
          "removed": false
        },
        {
          "address": "0xc32609c91d6b6b51d48f2611308fef121b02041f",
          "topics": [
            "0x64b83944e79c3ce8d4c297411de637c3e102d064677aac0c163976ebdcd6f50e",
            "0x000000000000000000000000f39fd6e51aad88f6f4ce6ab8827279cfffb92266"
          ],
          "data": "0x00000000000000000000000000000000000000000000003635c9adc5dea0000000000000000000000000000000000000000000000000003635c9adc5dea0000000000000000000000000000000000000000000000000003635c9adc5dea00000",
          "blockHash": "0x48cd6dc1ac39d02ff2e7e8d8bfeb940a9cfd4a8578943ae10aa3469393e34175",
          "blockNumber": "0x8ae727",
          "blockTimestamp": "0x6713d077",
          "transactionHash": "0x41ff7e0820cf2cc2b2271b5ef9344a309acd248e3cf7226b091b6ce215f6e1db",
          "transactionIndex": "0x0",
          "logIndex": "0x2",
          "removed": false
        }
      ],
      "logsBloom": "0x00000020000001000000000000000000000000000000000000000000000000000000000000000001000000000000000000000000000000000000000000000000000001000000004000000008800000000000000000000000000000000000000000000000000000000000000100000000000000000000000000000010000000000000000000000000000000000000000000000000000000000000000100000004000000000000000000000000000000000000000000000000000000000000004000000002000010200000000000000000080000002000000000000001020008000000000000000000000000000010000000000000000000000000000000000000",
      "type": "0x2",
      "transactionHash": "0x41ff7e0820cf2cc2b2271b5ef9344a309acd248e3cf7226b091b6ce215f6e1db",
      "transactionIndex": "0x0",
      "blockHash": "0x48cd6dc1ac39d02ff2e7e8d8bfeb940a9cfd4a8578943ae10aa3469393e34175",
      "blockNumber": "0x8ae727",
      "gasUsed": "0x320fb",
      "effectiveGasPrice": "0xa01",
      "blobGasPrice": "0x1",
      "from": "0xf39fd6e51aad88f6f4ce6ab8827279cfffb92266",
      "to": "0xc32609c91d6b6b51d48f2611308fef121b02041f",
      "contractAddress": null
    },
    {
      "status": "0x1",
      "cumulativeGasUsed": "0x6500",
      "logs": [
        {
          "address": "0x627b9a657eac8c3463ad17009a424dfe3fdbd0b1",
          "topics": [
            "0x8be0079c531659141344cd1fd0a4f28419497f9722a3daafe3b4186f6b6457e0",
            "0x000000000000000000000000f39fd6e51aad88f6f4ce6ab8827279cfffb92266",
            "0x000000000000000000000000f39fd6e51aad88f6f4ce6ab8827279cfffb92266"
          ],
          "data": "0x",
          "blockHash": "0x058b500bb1e380d69174c6b37ed7e8e24d2a7d348c000bf4c437db3188adf614",
          "blockNumber": "0x8ae728",
          "blockTimestamp": "0x6713d07c",
          "transactionHash": "0xd2ec08c8efe0e8aabd599ba7f5e65d514f95118676ecdbfd035c9b4b1ecd1460",
          "transactionIndex": "0x0",
          "logIndex": "0x0",
          "removed": false
        }
      ],
      "logsBloom": "0x00000000000000000000000000000000000000000000000000800000000000000000000000000000000000000000000000000000000000000000000000000000000000000000000000000000000000000001000000000000000000000000000000000000000000000000000100000000000000000000000000000000000000400000000000000000000000000000000000000000000000000000000100000000000000000000000000000000000000000000000000000000000000000000004000000000000010200000000000000000000000002000000000000000000000000000000000000000000000000000000000000000000000000000000000000000",
      "type": "0x2",
      "transactionHash": "0xd2ec08c8efe0e8aabd599ba7f5e65d514f95118676ecdbfd035c9b4b1ecd1460",
      "transactionIndex": "0x0",
      "blockHash": "0x058b500bb1e380d69174c6b37ed7e8e24d2a7d348c000bf4c437db3188adf614",
      "blockNumber": "0x8ae728",
      "gasUsed": "0x6500",
      "effectiveGasPrice": "0x8c4",
      "blobGasPrice": "0x1",
      "from": "0xf39fd6e51aad88f6f4ce6ab8827279cfffb92266",
      "to": "0x627b9a657eac8c3463ad17009a424dfe3fdbd0b1",
      "contractAddress": null
    },
    {
      "status": "0x1",
      "cumulativeGasUsed": "0x6500",
      "logs": [
        {
          "address": "0xa62835d1a6bf5f521c4e2746e1f51c923b8f3483",
          "topics": [
            "0x8be0079c531659141344cd1fd0a4f28419497f9722a3daafe3b4186f6b6457e0",
            "0x000000000000000000000000f39fd6e51aad88f6f4ce6ab8827279cfffb92266",
            "0x000000000000000000000000f39fd6e51aad88f6f4ce6ab8827279cfffb92266"
          ],
          "data": "0x",
          "blockHash": "0xddc737375cf3d95f38eb8f06d479a888282db42f2ee5155f624322acb97827df",
          "blockNumber": "0x8ae729",
          "blockTimestamp": "0x6713d081",
          "transactionHash": "0x2defa9df99a01737beddbadb39d608c1baa454633cf3b1e2c998e182608fb507",
          "transactionIndex": "0x0",
          "logIndex": "0x0",
          "removed": false
        }
      ],
      "logsBloom": "0x00000020000000000000000000000000000000000000000000800000000000000000000000000001000000000000000000000000000000000000000000000000000000000000000000000000000000000001000000000000000000000000000000000000000000000000000100000000000000000000000000000000000000400000000000000000000000000000000000000000000000000000000000000004000000000000000000000000000000000000000000000000000000000000000000000000000000200000000000000000000000002000000000000000000000000000000000000000000000000000000000000000000000000000000000000000",
      "type": "0x2",
      "transactionHash": "0x2defa9df99a01737beddbadb39d608c1baa454633cf3b1e2c998e182608fb507",
      "transactionIndex": "0x0",
      "blockHash": "0xddc737375cf3d95f38eb8f06d479a888282db42f2ee5155f624322acb97827df",
      "blockNumber": "0x8ae729",
      "gasUsed": "0x6500",
      "effectiveGasPrice": "0x7ac",
      "blobGasPrice": "0x1",
      "from": "0xf39fd6e51aad88f6f4ce6ab8827279cfffb92266",
      "to": "0xa62835d1a6bf5f521c4e2746e1f51c923b8f3483",
      "contractAddress": null
    },
    {
      "status": "0x1",
      "cumulativeGasUsed": "0x8e9c",
      "logs": [
        {
          "address": "0x627b9a657eac8c3463ad17009a424dfe3fdbd0b1",
          "topics": [
            "0xddf252ad1be2c89b69c2b068fc378daa952ba7f163c4a11628f55a4df523b3ef",
            "0x0000000000000000000000000000000000000000000000000000000000000000",
            "0x000000000000000000000000f39fd6e51aad88f6f4ce6ab8827279cfffb92266"
          ],
          "data": "0x00000000000000000000000000000000000000000000003635c9adc5dea00000",
          "blockHash": "0x29343c75eba2c7edaa664bfbc7b0ab7ea82c53a704024129ca4f7365472d4898",
          "blockNumber": "0x8ae72a",
          "blockTimestamp": "0x6713d086",
          "transactionHash": "0xeaa0d87dd130b6117d7435a213e08874af1a485129adf1fff687a73f6667f246",
          "transactionIndex": "0x0",
          "logIndex": "0x0",
          "removed": false
        }
      ],
      "logsBloom": "0x00000000000000000000000000000000000000000000000000000000000000000000000000000000000000000000000000000000000000000000000000000000000000000000000000000008000000000000000000000000000000000000000000000000020000000000000100000800000000000000000000000010000000000000000000000000000000000000000000000000000000000000000100000000000000000000000000000000000000000000000000000000000000000000004000000002000010200000000000000000000000002000000000000000000020000000000000000000000000000000000000000000000000000000000000000000",
      "type": "0x2",
      "transactionHash": "0xeaa0d87dd130b6117d7435a213e08874af1a485129adf1fff687a73f6667f246",
      "transactionIndex": "0x0",
      "blockHash": "0x29343c75eba2c7edaa664bfbc7b0ab7ea82c53a704024129ca4f7365472d4898",
      "blockNumber": "0x8ae72a",
      "gasUsed": "0x8e9c",
      "effectiveGasPrice": "0x6b7",
      "blobGasPrice": "0x1",
      "from": "0xf39fd6e51aad88f6f4ce6ab8827279cfffb92266",
      "to": "0x627b9a657eac8c3463ad17009a424dfe3fdbd0b1",
      "contractAddress": null
    },
    {
      "status": "0x1",
      "cumulativeGasUsed": "0x8e9c",
      "logs": [
        {
          "address": "0xa62835d1a6bf5f521c4e2746e1f51c923b8f3483",
          "topics": [
            "0xddf252ad1be2c89b69c2b068fc378daa952ba7f163c4a11628f55a4df523b3ef",
            "0x0000000000000000000000000000000000000000000000000000000000000000",
            "0x000000000000000000000000f39fd6e51aad88f6f4ce6ab8827279cfffb92266"
          ],
          "data": "0x00000000000000000000000000000000000000000000003635c9adc5dea00000",
          "blockHash": "0x4d8cf2dd3aa4f1b41b3a1310718bf047fe41341ab9392a0afa36fcbd9356f965",
          "blockNumber": "0x8ae72b",
          "blockTimestamp": "0x6713d08b",
          "transactionHash": "0x09c44b424eee61d7227aa8bfffc628851f478dd389ae2b7c9ba0296943c1f92f",
          "transactionIndex": "0x0",
          "logIndex": "0x0",
          "removed": false
        }
      ],
      "logsBloom": "0x00000020000000000000000000000000000000000000000000000000000000000000000000000001000000000000000000000000000000000000000000000000000000000000000000000008000000000000000000000000000000000000000000000000020000000000000100000800000000000000000000000010000000000000000000000000000000000000000000000000000000000000000000000004000000000000000000000000000000000000000000000000000000000000000000000002000000200000000000000000000000002000000000000000000020000000000000000000000000000000000000000000000000000000000000000000",
      "type": "0x2",
      "transactionHash": "0x09c44b424eee61d7227aa8bfffc628851f478dd389ae2b7c9ba0296943c1f92f",
      "transactionIndex": "0x0",
      "blockHash": "0x4d8cf2dd3aa4f1b41b3a1310718bf047fe41341ab9392a0afa36fcbd9356f965",
      "blockNumber": "0x8ae72b",
      "gasUsed": "0x8e9c",
      "effectiveGasPrice": "0x5e1",
      "blobGasPrice": "0x1",
      "from": "0xf39fd6e51aad88f6f4ce6ab8827279cfffb92266",
      "to": "0xa62835d1a6bf5f521c4e2746e1f51c923b8f3483",
      "contractAddress": null
    }
  ],
  "libraries": [],
  "pending": [],
  "returns": {
    "2": {
      "internal_type": "contract MyERC20Mock",
      "value": "0xa62835D1A6bf5f521C4e2746E1F51c923b8f3483"
    },
    "0": {
      "internal_type": "address",
      "value": "0xf39Fd6e51aad88F6F4ce6aB8827279cffFb92266"
    },
    "3": {
      "internal_type": "contract NoSandwichSwapPair",
      "value": "0xC32609C91d6B6b51D48f2611308FEf121B02041f"
    },
    "1": {
      "internal_type": "contract MyERC20Mock",
      "value": "0x627b9A657eac8c3463AD17009a424dFE3FDbd0b1"
    }
  },
  "timestamp": 1729351848,
  "chain": 1287,
  "commit": "c093b48"
}